:1000000000000120210C00001F0C00001F0C00004C
:100010001F0C00001F0C00001F0C0000000000005F
:100020000000000000000000000000001F0C0000A5
:100030001F0C0000000000001F0C00001F0C00003F
:100040001F0C00001F0C00001F0C00001F0C000004
:100050001F0C00001F0C00001F0C00001F0C0000F4
:100060001F0C00001F0C00001F0C00001F0C0000E4
:100070001F0C00001F0C00001F0C00001F0C0000D4
:100080001F0C00001F0C00001F0C00001F0C0000C4
:100090001F0C00001F0C00001F0C00001F0C0000B4
:1000A0001F0C0000050E0000350E00001F0C0000A4
:1000B0001F0C00001F0C00001F0C00001F0C000094
:1000C0001F0C00001F0C00001F0C0000D9090000CD
:1000D000FD090000210A0000450A0000690A00002D
:1000E000910A00000348044B834202D0034B03B142
:1000F00018477047840000208400002000000000A2
:100100000548064B1B1AD90F01EBA301491002D079
:10011000034B03B11847704784000020840000207F
:100120000000000010B5064C237843B9FFF7DAFF52
:10013000044B13B10448AFF300800123237010BDBA
:100140002906002000000000D81C000008B5054B5F
:100150001BB105490548AFF30080BDE80840FFF733
:10016000CFBF00BF0000000010060020D81C000018
:10017000036801221A707047036801221A707047E1
:10018000022A05D8DFE802F0020608000023036017
:10019000002070470160FBE70B680360F8E7012A65
:1001A00002D101600020704708B5FFF7E9FF002089
:1001B00008BD022A05D8DFE802F002060800002385
:1001C0000360002070470160FBE70B680360F8E7FD
:1001D000012A02D101600020704708B5FFF7E9FF4E
:1001E000002008BD10B50446836813B10322014600
:1001F0009847204610BD0000D0B58CB057EC106B6E
:1002000000248DF81F40154901A800F0BDFD3046BF
:10021000394601F0B3FC0146224601A800F04AFD30
:10022000089409940A940B940DF11F0308930C4B46
:100230000B930C4B0A9308A901A800F013FE08A821
:10024000FFF7D0FF01A800F04BFD9DF81F30002BF9
:10025000FBD001A800F022FD0CB0D0BD00C00040D2
:10026000710100009F01000070B590B006460C4679
:10027000274D0A9540F20151ADF82C102B681B68F0
:10028000112228469847089540F20721ADF824101E
:100290002B681B6802222846984700258DF81F50BE
:1002A0001C4901A800F070FD2A46314601A800F063
:1002B00001FD0C950D950E950F950DF11F030C93F7
:1002C000154B0F93154B0E930CA901A800F0CAFD16
:1002D0000CA8FFF787FF01A800F002FD0EE0104810
:1002E00090FBF4F001F0CEF941EC100BFFF784FF26
:1002F00007480368DB6840F2072198479DF81F30E4
:10030000002BECD001A800F0C9FC10B070BD00BFFC
:100310009400002020C0004079010000D1010000BD
:1003200040420F0010B5A0B01F491AA800F02CFDE4
:1003300001221E491AA800F0BDFC4FF4C6730193B8
:1003400002934FF4DC71039104934FF4847205928D
:1003500040F2EF1406940793089309910A9340F230
:1003600029100B900C920D930E930F934FF4A573DD
:1003700010931192129413914FF4B071149115913E
:100380001693179218901992002400E0002420ABD5
:1003900003EB840353F87C1C0548FFF765FF013429
:1003A000192CF4D1F2E700BF00C0004020A10700E3
:1003B00040420F00002807DB00F01F024009012324
:1003C0009340024A42F82030704700BF00E100E04D
:1003D000FEE7000008B50B0A5A1ED2B2092A0CD853
:1003E000C9B2072909D8013B084A52F8233013F84B
:1003F0002100003818BF012008BD054B054A1A60CE
:10040000054B33221A60FFF7E3FF00BF0400002012
:100410008C000020C41B00009000002010B50B0AC7
:1004200003F1FF3C5FFA8CFCBCF1090F2AD85FFA9C
:1004300081FEBEF1070F25D8013B00EB030C9CF8B1
:10044000FEC34CFA01FC1CF0010F40D0184490F898
:10045000080440FA01F111F0010F2ED0D2B13D4A4B
:1004600052F823004FEA8E0E0EF180014FF0000C7F
:1004700000F801C052F823300EF1400E012203F8BB
:100480000E2023E0344B354A1A60354B3A221A606D
:10049000FFF79EFF2F4A52F823004FEA8E0E0EF10F
:1004A00040014FF0000C00F801C052F823300EF16B
:1004B000800E012203F80E2008E0264951F823108F
:1004C0004FEA8E03803382F00102CA5410BD00EB64
:1004D000030C9CF8F4C34CFA01FC1CF0010F30D063
:1004E000184490F8120440FA01F111F0010F20D0E5
:1004F0007AB118494FEA8E0E0EF14000012251F8F0
:100500002340225451F823300EF1800E03F80E20C0
:10051000DCE710494FEA8E0E0EF18000002251F800
:100520002340225451F823300EF1400E03F80E20E0
:10053000CCE7084951F823104FEA8E038033CA54A0
:10054000C4E7044951F823104FEA8E034033CA54DC
:10055000BCE700BF040000208C000020C41B00008A
:100560009000002008B50B0A5A1ED2B2092A11D8F1
:100570005FFA81FCBCF1070F0CD8013B094A52F825
:10058000233013F82C2003689B68B2FA82F25209D8
:10059000984708BD044B054A1A60054B5E221A6055
:1005A000FFF716FF040000208C000020C41B000091
:1005B0009000002010B5080A431EDBB2052B18D8A6
:1005C000C9B2072915D8421E0E4B890001F5607C7F
:1005D0004FF0000E53F8224004F80CE053F822309C
:1005E00001F5507101225A54223040B2FFF7E2FE69
:1005F00010BD054B054A1A60054B90221A60FFF7A3
:10060000E7FE00BF040000208C000020C41B000097
:100610009000002008B50B0A5A1ED2B2052A0CD849
:10062000C9B2072909D8013B084A52F8233089008A
:1006300001F5507100225A5408BD054B054A1A6055
:10064000054B9A221A60FFF7C3FE00BF040000208A
:100650008C000020C41B00009000002070B50646EE
:100660000546084B45F8043B00F5417403E0103C97
:100670002046FFF7B7FDA542F9D1034B3360304662
:1006800070BD00BF501C0000201C000010B50446C7
:10069000FFF7E4FF40F21C41204600F09DFD20469C
:1006A00010BD000000B50F4B036084460E4B4CF8A4
:1006B000043B4FF0050E0CE000221A605A609A606D
:1006C000DA60013910330029F6DA0EF1FF3E0CF141
:1006D000800CBEF1000F02DB63460721F3E75DF8F3
:1006E00004FB00BF201C0000501C0000012800D0AB
:1006F00070474FF6FF739942FAD110B5044C20466B
:10070000FFF7D0FF034A0449204600F060FD10BD0A
:1007100094000020000000205D06000010B50B0AC8
:10072000581EC0B2092815D8C9B2072912D8013BF2
:100730000C48890001F5A07C02F0010E50F823401E
:1007400004F80CE050F8233001F5C071C2F3400208
:100750005A5410BD044B054A1A60054BAA221A6070
:10076000FFF736FE040000208C000020C41B0000B0
:10077000900000202DE9F8430E4614460B0ACAB239
:10078000591EC9B2092900F290800546072A00F2D5
:100790008C80013B00EB030C9CF8FE030121B1406F
:1007A00020EA01008CF8FE039CF8F40320EA010023
:1007B0008CF8F4039CF8080420EA01008CF8080483
:1007C0009CF8120420EA01008CF812043F4F57F8FD
:1007D0002300920002F180084FF0000C00F808C0DE
:1007E00057F8230002F1C00E00F80EC057F823009E
:1007F00002F1400900F809C014F0020F04D057F8C4
:100800002300012700F8087014F0040F05D0EF183A
:1008100097F8FE03084387F8FE0314F0080F0BD087
:10082000EF1897F8F403084387F8F403274850F8C3
:100830002300012700F8097014F0100F0FD0EF18F3
:1008400097F80804084387F808042048012750F85F
:10085000232002F80E7050F8230000F8097014F0FD
:10086000200F0BD0E81890F812240A4380F81224C5
:10087000164A52F82330012203F80E2014F0C00F5C
:100880001BD114F4807F05D02B689B680122314670
:100890002846984714F4007F05D02B689B680022F7
:1008A000314628469847BDE8F883094B094A1A6043
:1008B000094BB2221A60FFF78BFD054B054A1A60FF
:1008C000054BD4221A60FFF783FD00BF040000200F
:1008D0008C000020C41B00009000002070B504466E
:1008E0000D4616460022FFF719FF324629462046DC
:1008F000FFF740FF70BD38B5044600230360436036
:100900008360C3608B6833B10D4602229847EB6861
:10091000E360AB68A360204638BD10B50446836829
:100920002BB10322014698470023A360E3602046D1
:1009300010BD000070B50D0A6B1EDBB2052B10D880
:100940000446CEB2072E0CD80368DB699847013DF8
:1009500006EBC50604EB061000210430FFF7DDFFAF
:1009600070BD044B044A1A60044B88221A60FFF7DA
:100970002FFD00BF8C000020C41B00009000002051
:1009800008B5836813B1C368984708BD00F01EFC22
:10099000F8B5044616464D1EEF0002EBC50004EB09
:1009A00000100430FFF7ECFF3C44344494F8C433A7
:1009B0007BB1084951F82500B30003F5407410F8E5
:1009C0002620D2B2025551F8252003F5607300218C
:1009D000D154F8BD0400002008B5064BDB89C3F3F1
:1009E0004E0303B908BD5A1ED2B201210248FFF7D7
:1009F000CFFFF7E7004C00409400002008B5064BFD
:100A0000DB8BC3F34E0303B908BD5A1ED2B20221D9
:100A10000248FFF7BDFFF7E7004C004094000020BC
:100A200008B5064BDB8DC3F34E0303B908BD5A1E50
:100A3000D2B203210248FFF7ABFFF7E7004C0040BA
:100A40009400002008B5064BDB8FC3F34E0303B9B7
:100A500008BD5A1ED2B204210248FFF799FFF7E7FA
:100A6000004C00409400002008B5074BB3F84E300E
:100A7000C3F34E0303B908BD5A1ED2B20521034881
:100A8000FFF786FFF7E700BF004C0040940000200E
:100A900008B5074BB3F85E30C3F34E0303B908BD86
:100AA0005A1ED2B206210348FFF772FFF7E700BFD4
:100AB000004C00409400002082B002460B46EC46F9
:100AC000D0E900018CE8030093E8030082E803000A
:100AD0009CE8030083E8030002B0704738B5054680
:100AE0000C46FFF7E9FFAB68A268AA60A360EB6859
:100AF000E268EA60E36038BD10B584B00446684639
:100B0000FFF7F9FE21466846FFF7E8FF6846FFF762
:100B100069FB204604B010BDF8B50F4619463D0AE2
:100B20006B1EDBB2052B11D80646F8B207280DD88C
:100B3000022A2CD0032A3CD0012A0FD0304B314A54
:100B40001A60314B79221A60FFF742FC2C4B2D4A78
:100B50001A602D4B67221A60FFF73AFC6B1E2B4A76
:100B600052F823C0820002F5407200240CF80240C3
:100B700006EBC303034483F8C443013D00EBC50007
:100B800006EB00100430FFF7B7FF00232FE06B1EC9
:100B90001E4A52F82340820002F540724FF0010CC9
:100BA00004F802C006EBC3030344002283F8C42305
:100BB000E3E76B1E154A52F823C0820002F540722B
:100BC0001CF82040E4B20CF8024006EBC3030344D7
:100BD000012283F8C423D0E70C4A52F825409A003A
:100BE00002F560724FF0000C04F802C00133072BCD
:100BF000F2D933689B69394630469847F8BD00BF43
:100C00008C000020C41B0000900000200400002085
:100C100008B54FF6FF710120FFF768FD08BDFEE73C
:100C200008B500F059FA124A0AE01068516850F805
:100C3000230041F82300013391688B42F5D30C3235
:100C40000C4B9A4201D20023F6E70B4A08E01168E8
:100C5000002041F82300013351688B42F7D308325A
:100C6000064B9A4201D20023F6E700F07FFB00BF5B
:100C7000D81C0000E41C0000E81C0000F01C000070
:100C8000002807DB00F01F02400901239340024ABD
:100C900042F82030704700BF00E100E0034A0260E4
:100CA000426800219160024A02607047B01C000057
:100CB000801C0000C160836803FB01F1416143684F
:100CC00019602AB94268936843F001039360704742
:100CD0004268936823F0010393607047C0687047CF
:100CE0004268936843F0800393607047426893685A
:100CF00023F080039360704743689868C0F3C01086
:100D000070474369426852689B1A8068B3FBF0F0F1
:100D10007047436842691A60704710B50446FFF790
:100D2000BDFF1821204600F057FA204610BD0000F4
:100D3000012800D070474FF6FF739942FAD170B581
:100D40000A480024046044608460C460084E094D71
:100D50003246294600F03BFA07480460446084604C
:100D6000C4603246294600F032FA70BDB00400205B
:100D7000000000207D0D0000C004002010B50446D6
:100D8000FFF730FA204610BD38B504460D46184B23
:100D90000360184B0360416062238B60164B186838
:100DA00007EE900AF8EE677A17EE900A00F07CFCE6
:100DB0000DA3D3E9002300F0F9FD00220F4B00F052
:100DC00015FB00F0DBFEA0600023E360236163619C
:100DD0000B4B9D4204D01A20FFF752FF204638BD2E
:100DE0001920F9E7AFF300800000000080842E4155
:100DF000801C0000B01C0000300000200000E03F1C
:100E000000C0004008B5094B0122DA609B6813F06E
:100E1000010F04D0054A936823F080039360044BCC
:100E20009B6813B10248FFF7ABFD08BD00C000404E
:100E3000B004002008B5094B0122DA629B6A13F066
:100E4000010F04D0054A936A23F080039362044B98
:100E50009B6813B10248FFF793FD08BD00C0004036
:100E6000C004002008B54268054B9A4203D00548EB
:100E7000FFF742FE08BD0448FFF73EFEFAE700BF59
:100E800000C00040C0040020B004002008B54FF6A8
:100E9000FF710120FFF74CFF08BD000082B00190F8
:100EA000304B5B681AB2C3F30903002B58D012F41D
:100EB000007F03D06FEA83536FEA9353294A526845
:100EC00012F4800F35D0274A526802F4E022B2F5BE
:100ED000A02F26D0244A92ED216AB8EE466AD2EDC0
:100EE0001B7AF7EE006A86EE867A9FED206A37EE6F
:100EF000067AF8EE677A37EE677ADDED017AB8EEBA
:100F0000676A07EE903AF8EEE77AC7EE875A76EE10
:100F1000E56AC6EE267AFCEEE77A17EE900A02B092
:100F20007047114A92ED226AB8EE466AD2ED1C7AF9
:100F3000D7E70C4A526802F4E022B2F5A02F07D09E
:100F4000094A92ED196AB8EE466AD2ED137AC8E7FB
:100F5000054A92ED1A6AB8EE466AD2ED147AC0E7F5
:100F60000198DCE70004014000102000000040442C
:100F700010B5514B9B6803F00703052B17D8DFE82A
:100F800003F003122B3A464A4B4B9B6C13F0010FB4
:100F900004D04A4B4FF400421A6008E0484B1A68EC
:100FA000464B1A6003E0454B42F2B8421A60424B8E
:100FB0009B6803F07003302B69D051D8102B5CD0A4
:100FC000202B36D13C4B1B6B13F4004F5AD03D4BBA
:100FD0004FF4FA321A6033E0374B1B6B13F4004FB7
:100FE00004D0364B4FF4FA321A60E0E7334B4FF43B
:100FF00000421A60DBE7304B5B68C3F302433248C0
:1010000098402E4C2060FFF749FF2060CFE72B4B24
:101010002E4A1A60CBE7284B9B6C13F0020F03D0CB
:10102000264B2B4A1A60C2E72A4B1A68234B1A60D8
:10103000BDE72BB9204B9B6C214B1A68214B1A60E2
:101040001D4B9968C1F302419A68C2F302721B48B2
:101050000368CB4003601B490B68D3400B6010BD95
:10106000402B20D0502BEBD1134B9B6C13F0020F75
:101070001DD0144B164A1A60E2E7124B42F2B842F6
:101080001A60DDE70F4B4FF400421A60D8E70A4BB5
:101090005B68C3F302430C4898400A4C2060FFF79A
:1010A000FDFE2060CCE7074B084A1A60C8E7094BF1
:1010B0001A68044B1A60C3E70004014030000020A6
:1010C000880000202C00002060E3160040787D019D
:1010D000404B4C008400002008B5344B4FF4B5421F
:1010E0009A81334AD2F8883043F47003C2F88830CA
:1010F000304B80225A61304946F65A130B602F4B11
:101100002F4A1A602F4A538D9BB243F00803538530
:10111000938D9BB223F008039BB29385CB6843F079
:10112000B07343F48033CB60002300E00133C72B5E
:101130000ADC214A926C12F0020FF7D01E490A6DA8
:1011400042F002020A65F1E71F4B4FF400421A60B9
:101150001C4A538D9BB243F001035385938D9BB280
:1011600023F001039BB2938502F53742D36843F421
:101170008073D360002300E00133C72B0ADC0E4AE2
:10118000926C12F0010FF7D00B490A6D42F0010288
:101190000A65F1E7084B4FF480325A6033229A60B7
:1011A00000221A60FFF7E4FE08BD00BF00480040BF
:1011B00000ED00E0003004E0000401408400002065
:1011C000006CDC02004D004088000020FEE70B466A
:1011D0000146184600F02AB800F000B800F012B836
:1011E00008B5064B044613B10021AFF30080044B51
:1011F0001B6803B19847204600F09EF800000000ED
:101200000C060020024B0146186800F04BB800BFE6
:1012100034000020014800F043B800BF2806002039
:10122000014800F03EB800BF2806002010B5044673
:101230000448134620B10A4602202146AFF300803D
:1012400010BD00BF0000000002440346934200D1DD
:10125000704703F8011BF9E770B50D4D0D4C641B89
:10126000A4100026A64209D10B4D0C4C00F066F8E4
:10127000641BA4100026A64205D170BD55F8043B9E
:1012800098470136EEE755F8043B98470136F2E7F8
:1012900054130000541300005413000060130000A6
:1012A0007047704738B50546002941D051F8043CD5
:1012B0000C1F002BB8BFE418FFF7ACFF1D4A1368E2
:1012C00033B9636014602846BDE83840FFF7A8BF13
:1012D000A34208D9206821188B4201BF19685B68B6
:1012E00009182160EDE71A465B680BB1A342FAD9F1
:1012F00011685018A0420BD1206801445018834255
:101300001160E0D118685B68536008441060DAE748
:1013100002D90C232B60D6E7206821188B4204BF2A
:1013200019685B68636004BF091821605460CAE7EC
:1013300038BD00BFD0040020FEE700BFF8B500BFF5
:10134000F8BC08BC9E467047F8B500BFF8BC08BCA6
:101350009E4670474D010000110C00008D0E0000EC
:1013600025010000A3F5803A704700BF174B002B02
:1013700008BF134B9D46FFF7F5FF00218B460F4634
:101380001348144A121AFFF75FFF0E4B002B00D0D0
:1013900098470D4B002B00D09847002000210400F7
:1013A0000D000D48002802D00C48AFF30080FFF775
:1013B00053FF20002900FEF7B5FFFFF711FF00BF24
:1013C00000000800000000000000000000000120F4
:1013D000840000202C060020000000000000000017
:1013E00081F0004102E000BF83F0004330B54FEAD6
:1013F00041044FEA430594EA050F08BF90EA020F43
:101400001FBF54EA000C55EA020C7FEA645C7FEAD5
:10141000655C00F0E2804FEA5454D4EB5555B8BFF8
:101420006D420CDD2C4480EA020281EA030382EA69
:10143000000083EA010180EA020281EA0303362DFB
:1014400088BF30BD11F0004F4FEA01314FF4801CCE
:101450004CEA113102D0404261EB410113F0004FE0
:101460004FEA03334CEA133302D0524263EB430397
:1014700094EA050F00F0A780A4F10104D5F1200E35
:101480000DDB02FA0EFC22FA05F2801841F1000190
:1014900003FA0EF2801843FA05F359410EE0A5F164
:1014A00020050EF1200E012A03FA0EFC28BF4CF095
:1014B000020C43FA05F3C01851EBE37101F000454B
:1014C00007D54FF0000EDCF1000C7EEB00006EEB58
:1014D0000101B1F5801F1BD3B1F5001F0CD34908E2
:1014E0005FEA30004FEA3C0C04F101044FEA445239
:1014F00012F5800F80F09A80BCF1004F08BF5FEAC0
:10150000500C50F1000041EB045141EA050130BD9F
:101510005FEA4C0C404141EB0101013C28BFB1F5B1
:10152000801FE9D291F0000F04BF01460020B1FAFC
:1015300081F308BF2033A3F10B03B3F120020CDACF
:101540000C3208DD02F1140CC2F10C0201FA0CF0AD
:1015500021FA02F10CE002F11402D8BFC2F1200C12
:1015600001FA02F120FA0CFCDCBF41EA0C019040C8
:10157000E41AA2BF01EB0451294330BD6FEA040411
:101580001F3C1CDA0C340EDC04F11404C4F12002FC
:1015900020FA04F001FA02F340EA030021FA04F30E
:1015A00045EA030130BDC4F10C04C4F1200220FA65
:1015B00002F001FA04F340EA0300294630BD21FAA3
:1015C00004F0294630BD94F0000F83F4801306BF69
:1015D00081F480110134013D4EE77FEA645C18BF5D
:1015E0007FEA655C29D094EA050F08BF90EA020FF4
:1015F00005D054EA000C04BF1946104630BD91EAEC
:10160000030F1EBF0021002030BD5FEA545C05D1EE
:101610004000494128BF41F0004130BD14F580042D
:101620003CBF01F5801130BD01F0004545F0FE41A1
:1016300041F470014FF0000030BD7FEA645C1ABFD6
:10164000194610467FEA655C1CBF0B46024650EA0D
:10165000013406BF52EA033591EA030F41F4002139
:1016600030BD00BF90F0000F04BF0021704730B5BF
:101670004FF4806404F132044FF000054FF0000194
:1016800050E700BF90F0000F04BF0021704730B555
:101690004FF4806404F1320410F0004548BF40422A
:1016A0004FF000013EE700BF42004FEAE2014FEA7F
:1016B00031014FEA02701FBF12F07F4393F07F4F5A
:1016C00081F06051704732F07F4208BF704793F05D
:1016D0007F4F04BF41F40021704730B54FF4607470
:1016E00001F0004521F000411CE700BF50EA010273
:1016F00008BF704730B54FF000050AE050EA01021C
:1017000008BF704730B511F0004502D5404261EB8B
:1017100041014FF4806404F132045FEA915C3FF4CC
:10172000D8AE4FF003025FEADC0C18BF03325FEA69
:10173000DC0C18BF033202EBDC02C2F1200300FA1A
:1017400003FC20FA02F001FA03FE40EA0E0021FA3F
:1017500002F11444BDE600BF70B54FF0FF0C4CF42D
:10176000E06C1CEA11541DBF1CEA135594EA0C0FDF
:1017700095EA0C0F00F0DEF82C4481EA030621EA1A
:101780004C5123EA4C5350EA013518BF52EA033555
:1017900041F4801143F4801338D0A0FB02CE4FF007
:1017A0000005E1FB02E506F00042E0FB03E54FF037
:1017B0000006E1FB03569CF0000F18BF4EF0010E2F
:1017C000A4F1FF04B6F5007F64F5407404D25FEA2B
:1017D0004E0E6D4146EB060642EAC62141EA5551DE
:1017E0004FEAC52040EA5E504FEACE2EB4F1FD0C20
:1017F00088BFBCF5E06F1ED8BEF1004F08BF5FEA9E
:10180000500E50F1000041EB045170BD06F000464F
:1018100046EA010140EA020081EA0301B4EB5C04FC
:10182000C2BFD4EB0C0541EA045170BD41F48011F4
:101830004FF0000E013C00F3AB8014F1360FDEBF19
:10184000002001F0004170BDC4F10004203C35DAF5
:101850000C341BDC04F11404C4F1200500FA05F378
:1018600020FA04F001FA05F240EA020001F0004219
:1018700021F0004110EBD37021FA04F642EB06018F
:101880005EEA430E08BF20EAD37070BDC4F10C04B9
:10189000C4F1200500FA04F320FA05F001FA04F27D
:1018A00040EA020001F0004110EBD37041F1000169
:1018B0005EEA430E08BF20EAD37070BDC4F1200574
:1018C00000FA05F24EEA020E20FA04F301FA05F2DC
:1018D00043EA020321FA04F001F0004121FA04F284
:1018E00020EA020000EBD3705EEA430E08BF20EA54
:1018F000D37070BD94F0000F0FD101F0004640008E
:1019000041EB010111F4801F08BF013CF7D041EA0F
:10191000060195F0000F18BF704703F00046520013
:1019200043EB030313F4801F08BF013DF7D043EAE4
:101930000603704794EA0C0F0CEA135518BF95EA9A
:101940000C0F0CD050EA410618BF52EA4306D1D121
:1019500081EA030101F000414FF0000070BD50EA40
:10196000410606BF1046194652EA430619D094EACA
:101970000C0F02D150EA013613D195EA0C0F05D1B4
:1019800052EA03361CBF104619460AD181EA030108
:1019900001F0004141F0FE4141F470014FF00000C0
:1019A00070BD41F0FE4141F4780170BD70B54FF05B
:1019B000FF0C4CF4E06C1CEA11541DBF1CEA1355DB
:1019C00094EA0C0F95EA0C0F00F0A7F8A4EB0504BD
:1019D00081EA030E52EA03354FEA013100F08880B4
:1019E0004FEA03334FF0805545EA131343EA12637D
:1019F0004FEA022245EA111545EA10654FEA002632
:101A00000EF000419D4208BF964244F1FD0404F5EA
:101A1000407402D25B084FEA3202B61A65EB030546
:101A20005B084FEA32024FF480104FF4002CB6EB03
:101A3000020E75EB030E22BFB61A754640EA0C0083
:101A40005B084FEA3202B6EB020E75EB030E22BFC3
:101A5000B61A754640EA5C005B084FEA3202B6EB04
:101A6000020E75EB030E22BFB61A754640EA9C00C3
:101A70005B084FEA3202B6EB020E75EB030E22BF93
:101A8000B61A754640EADC0055EA060E18D04FEA51
:101A9000051545EA16754FEA06164FEAC30343EAF1
:101AA00052734FEAC2025FEA1C1CC0D111F4801FBE
:101AB0000BD141EA00014FF000004FF0004CB6E7B7
:101AC00011F4801F04BF01430020B4F1FD0C88BF56
:101AD000BCF5E06F3FF6AFAEB5EB030C04BFB6EB61
:101AE000020C5FEA500C50F1000041EB045170BD54
:101AF0000EF0004E4EEA113114EB5C04C2BFD4EB81
:101B00000C0541EA045170BD41F480114FF0000E04
:101B1000013C90E645EA060E8DE60CEA135594EA80
:101B20000C0F08BF95EA0C0F3FF43BAF94EA0C0F83
:101B30000AD150EA01347FF434AF95EA0C0F7FF4F8
:101B400025AF104619462CE795EA0C0F06D152EA4C
:101B500003353FF4FDAE1046194622E750EA410630
:101B600018BF52EA43067FF4C5AE50EA41047FF441
:101B70000DAF52EA43057FF4EBAE12E74A0011D2F3
:101B800012F5001211D20DD56FF47873B3EB6252D7
:101B90000ED44FEAC12343F0004343EA505323FAE3
:101BA00002F070474FF00000704750EA013002D158
:0C1BB0004FF0FF3070474FF0000070470E
:081BBC00A8F7FF7F0100000003
:101BC400433A5C55736572735C64693436313634F8
:101BD400335C4D6963726F436F6E74726F6C6C54D7
:101BE4006563686E696B5C594148414C5C73726310
:101BF4005C4D43555C6D73703433327034303172E4
:101C04005C6770696F5F6D73703433322E6370700C
:101C140000000000000000000000000000000000C0
:101C240000000000000000000000000000000000B0
:101C340000000000000000000000000000000000A0
:101C4400000000000000000000000000DD080000AB
:101C5400D50300001D04000065050000190B0000F9
:101C640035090000B5050000150600005D060000FA
:101C74008D060000000000000000000000000000CD
:101C84000000000000000000000000000000000050
:101C94000000000000000000000000000000000040
:101CA400000000000000000000000000B50C00006F
:101CB400DD0C0000650E0000E10C0000ED0C0000DE
:101CC400F90C0000030D0000130D00009D0C000032
:041CD4001B0D0000E4
:0C1CD800F01C0000000000208400000050
:0C1CE4000000000084000020A8050000A3
:101CF000000000000080094220800942008409425F
:101D0000208409420088094220880942008C094247
:101D1000208C09420090094220900942C0C62D0043
:101D2000C0C62D003800002000000000D4040020B0
:101D30003C050020A4050020000000000000000079
:101D40000000000000000000000000000000000093
:101D50000000000000000000000000000000000083
:101D60000000000000000000000000000000000073
:041D7000000000006F
:0400000300000C21CC
:00000001FF
