:1000000000000120410E00003F0E00003F0E0000E6
:100010003F0E00003F0E00003F0E000000000000F9
:100020000000000000000000000000003F0E000083
:100030003F0E0000000000003F0E00003F0E0000D9
:100040003F0E00003F0E00003F0E00003F0E00007C
:100050003F0E00003F0E00003F0E00003F0E00006C
:100060003F0E00003F0E00003F0E00003F0E00005C
:100070003F0E00003F0E00003F0E00003F0E00004C
:10008000591900007519000091190000AD19000000
:10009000C9190000E9190000091A0000291A000016
:1000A000990500003F0E00003F0E00003F0E0000CB
:1000B0003F0E00003F0E00003F0E00003F0E00000C
:1000C0003F0E00003F0E00003F0E0000F90B000045
:1000D0001D0C0000410C0000650C0000890C0000A4
:1000E000B10C00000348044B834202D0034B03B120
:1000F000184770479000002090000020000000008A
:100100000548064B1B1AD90F01EBA301491002D079
:10011000034B03B118477047900000209000002067
:100120000000000010B5064C237843B9FFF7DAFF52
:10013000044B13B10448AFF300800123237010BDBA
:100140002A07002000000000782E000008B5054BAB
:100150001BB105490548AFF30080BDE80840FFF733
:10016000CFBF00BF0000000010070020782E000065
:1001700000B58BB01448089040F20521ADF824106A
:1001800003681B680222984726234FF4E1320F4987
:1001900002A800F08FFF012202A90D4801F0C4FB64
:1001A0000C4800900F218DF8041003681B68022290
:1001B0009847084803689B680F21984701460648FE
:1001C00001F0A4FEF5E700BFB400002000100040DD
:1001D000B005002010050020282C0000FEE70000DC
:1001E000172904D8343100EB41008088704708B5E6
:1001F000034B044A1A60044B40221A60FFF7EEFFDB
:100200009C0000202C2C0000A800002070B50446A3
:100210000D4603681E699B6898470246294620469A
:10022000B04770BD08B507EE902AF8EE677A9FEDEB
:10023000167A67EE877A343100EB41008388013B00
:10024000072B19D8DFE803F00409180E1818181343
:100250009FED0E7A87EE870A08BD9FED0D7A87EE37
:10026000870AF9E79FED0B7A87EE870AF4E79FED9F
:100270000A7A87EE870AEFE7084B094A1A60094BAA
:1002800064221A60FFF7AAFF3333534000007F4314
:1002900000C07F4400F07F4500FC7F469C000020AA
:1002A0002C2C0000A8000020024A0260024A0260D2
:1002B000704700BFAC2C0000882C000008B517293F
:1002C0000AD801F1340300EB430082800D290BD9D9
:1002D0000F2916D83F2308E00B4B0C4A1A600C4B31
:1002E0002E221A60FFF77AFF2D235B1AC3F3C70192
:1002F00003F00703032243EA0121064800F01EFB36
:1003000008BD5923F1E700BF9C0000202C2C000001
:10031000A8000020B400002010B50446044B036080
:10032000044B0360A02101F094FB204610BD00BFE8
:10033000AC2C0000882C0000054B1B793BB100233E
:10034000034A137100E00133B3F57A7FFBDB70479A
:100350000000244210B50446124B0360124B0360A8
:10036000FFF7EAFF002309E0104A991D42F8213007
:1003700052F8210042F821000133DBB2172BF3D9E8
:100380000022A4F89C20094B09491960596859605A
:10039000C3F83C21C3F84021064B4FF080721A602D
:1003A000204610BD882C0000AC2C0000002001402D
:1003B0001044204400E100E0012800D070474FF6CF
:1003C000FF739942FAD110B5044C2046FFF7C2FFE3
:1003D000034A0449204601F037FB10BD10050020F8
:1003E00000000020A902000038B505460C46FFF7C2
:1003F000A3FF1C4A536823F030035360611E072992
:1004000027D8DFE801F0040B26142626261D154BFD
:100410005A685A600123A5F89C3038BD114A5368C8
:1004200043F0100353600223A5F89C30F5E70D4A12
:10043000536843F0200353600423A5F89C30ECE795
:10044000084A536843F0300353600823A5F89C30F2
:10045000E3E7054B054A1A60054BC5221A60FFF712
:10046000BDFE00BF002001409C0000202C2C00009D
:10047000A800002010B517292CD80C46B0F89C20F5
:1004800001F1340300EB430399888A422AD0FFF735
:10049000ABFF164B5A6822F4F8125A605A6842EAC7
:1004A00004425A601A6822F4C0221A601A681A605C
:1004B0001A6842F003021A600D4B93F84030002B8B
:1004C000FAD1263403F1804303F5903353F8240026
:1004D00080B210BD074B084A1A60084B45221A60CB
:1004E000FFF77CFEFFF728FFD3E700BF00200140A5
:1004F000000024429C0000202C2C0000A8000020BA
:1005000038B505460C460B290ED94C08063C00EBC5
:10051000840043683BB104F126011E4A52F82110C1
:1005200089B2A0B2984738BDFFF706FF95F86A2058
:10053000184B063253F8221021F4804143F8221060
:10054000D3F8402122F00E02C3F84021D3F8502105
:1005500042F00E02C3F85021082C16D00A2C16D0F7
:10056000062C10D000216A6E3AB195F86A30263315
:10057000084850F8230080B29047064A136843F0B9
:1005800003031360CFE70221EDE70121EBE704212C
:10059000E9E700BF0020014008B5034BD3F8541130
:1005A0000248FFF7ADFF08BD002001401005002004
:1005B00008B54FF6FF710120FFF7FEFE08BD0000F1
:1005C000002807DB00F01F02400901239340024A84
:1005D00042F82030704700BF00E100E0FEE7000075
:1005E00008B50B0A5A1ED2B2092A0CD8C9B207297B
:1005F00009D8013B084A52F8233013F8210000388B
:1006000018BF012008BD054B054A1A60054B33226F
:100610001A60FFF7E3FF00BF04000020A0000020E5
:10062000C82C0000AC00002010B50B0A03F1FF3C01
:100630005FFA8CFCBCF1090F2AD85FFA81FEBEF18B
:10064000070F25D8013B00EB030C9CF8FEC34CFAC6
:1006500001FC1CF0010F40D0184490F8080440FA47
:1006600001F111F0010F2ED0D2B13D4A52F8230012
:100670004FEA8E0E0EF180014FF0000C00F801C021
:1006800052F823300EF1400E012203F80E2023E031
:10069000344B354A1A60354B3A221A60FFF79EFFF9
:1006A0002F4A52F823004FEA8E0E0EF140014FF010
:1006B000000C00F801C052F823300EF1800E012228
:1006C00003F80E2008E0264951F823104FEA8E0364
:1006D000803382F00102CA5410BD00EB030C9CF879
:1006E000F4C34CFA01FC1CF0010F30D0184490F810
:1006F000120440FA01F111F0010F20D07AB118492B
:100700004FEA8E0E0EF14000012251F82340225490
:1007100051F823300EF1800E03F80E20DCE710496B
:100720004FEA8E0E0EF18000002251F82340225431
:1007300051F823300EF1400E03F80E20CCE70849A3
:1007400051F823104FEA8E038033CA54C4E704499A
:1007500051F823104FEA8E034033CA54BCE700BF60
:1007600004000020A0000020C82C0000AC000020E5
:1007700008B50B0A5A1ED2B2092A11D85FFA81FCB9
:10078000BCF1070F0CD8013B094A52F8233013F88B
:100790002C2003689B68B2FA82F25209984708BD80
:1007A000044B054A1A60054B5E221A60FFF716FFDC
:1007B00004000020A0000020C82C0000AC00002095
:1007C00010B5080A431EDBB2052B18D8C9B2072999
:1007D00015D8421E0E4B890001F5607C4FF0000ECB
:1007E00053F8224004F80CE053F8223001F5507120
:1007F00001225A54223040B2FFF7E2FE10BD054BF1
:10080000054A1A60054B90221A60FFF7E7FE00BF09
:1008100004000020A0000020C82C0000AC00002034
:1008200008B50B0A5A1ED2B2052A0CD8C9B207293C
:1008300009D8013B084A52F82330890001F550716C
:1008400000225A5408BD054B054A1A60054B9A22EE
:100850001A60FFF7C3FE00BF04000020A0000020C4
:10086000C82C0000AC00002010B50446836813B10A
:10087000032201469847204610BD000070B5064689
:100880000546084B45F8043B00F5417403E0103C75
:100890002046FFF7E9FFA542F9D1034B336030460C
:1008A00070BD00BF542D0000242D000010B504467B
:1008B000FFF7E4FF40F21C41204601F0CAF8204651
:1008C00010BD000000B50F4B036084460E4B4CF882
:1008D000043B4FF0050E0CE000221A605A609A604B
:1008E000DA60013910330029F6DA0EF1FF3E0CF11F
:1008F000800CBEF1000F02DB63460721F3E75DF8D1
:1009000004FB00BF242D0000542D0000012800D05E
:1009100070474FF6FF739942FAD110B5044C204648
:10092000FFF7D0FF034A0449204601F08DF810BDBF
:10093000B4000020000000207D08000010B50B0A64
:10094000581EC0B2092815D8C9B2072912D8013BD0
:100950000C48890001F5A07C02F0010E50F82340FC
:1009600004F80CE050F8233001F5C071C2F34002E6
:100970005A5410BD044B054A1A60054BAA221A604E
:10098000FFF72CFE04000020A0000020C82C00006F
:10099000AC0000202DE9F8430E4614460B0ACAB2FB
:1009A000591EC9B2092900F290800546072A00F2B3
:1009B0008C80013B00EB030C9CF8FE030121B1404D
:1009C00020EA01008CF8FE039CF8F40320EA010001
:1009D0008CF8F4039CF8080420EA01008CF8080461
:1009E0009CF8120420EA01008CF812043F4F57F8DB
:1009F0002300920002F180084FF0000C00F808C0BC
:100A000057F8230002F1C00E00F80EC057F823007B
:100A100002F1400900F809C014F0020F04D057F8A1
:100A20002300012700F8087014F0040F05D0EF1818
:100A300097F8FE03084387F8FE0314F0080F0BD065
:100A4000EF1897F8F403084387F8F403274850F8A1
:100A50002300012700F8097014F0100F0FD0EF18D1
:100A600097F80804084387F808042048012750F83D
:100A7000232002F80E7050F8230000F8097014F0DB
:100A8000200F0BD0E81890F812240A4380F81224A3
:100A9000164A52F82330012203F80E2014F0C00F3A
:100AA0001BD114F4807F05D02B689B68012231464E
:100AB0002846984714F4007F05D02B689B680022D5
:100AC000314628469847BDE8F883094B094A1A6021
:100AD000094BB2221A60FFF781FD054B054A1A60E7
:100AE000054BD4221A60FFF779FD00BF04000020F7
:100AF000A0000020C82C0000AC00002070B5044607
:100B00000D4616460022FFF719FF324629462046B9
:100B1000FFF740FF70BD38B5044600230360436013
:100B20008360C3608B6833B10D4602229847EB683F
:100B3000E360AB68A360204638BD10B50446836807
:100B40002BB10322014698470023A360E3602046AF
:100B500010BD000070B50D0A6B1EDBB2052B10D85E
:100B60000446CEB2072E0CD80368DB699847013DD6
:100B700006EBC50604EB061000210430FFF7DDFF8D
:100B800070BD044B044A1A60044B88221A60FFF7B8
:100B900025FD00BFA0000020C82C0000AC000020F4
:100BA00008B5836813B1C368984708BD00F0A0FD7D
:100BB000F8B5044616464D1EEF0002EBC50004EBE7
:100BC00000100430FFF7ECFF3C44344494F8C43385
:100BD0007BB1084951F82500B30003F5407410F8C3
:100BE0002620D2B2025551F8252003F5607300216A
:100BF000D154F8BD0400002008B5064BDB89C3F3CF
:100C00004E0303B908BD5A1ED2B201210248FFF7B4
:100C1000CFFFF7E7004C0040B400002008B5064BBA
:100C2000DB8BC3F34E0303B908BD5A1ED2B20221B7
:100C30000248FFF7BDFFF7E7004C0040B40000207A
:100C400008B5064BDB8DC3F34E0303B908BD5A1E2E
:100C5000D2B203210248FFF7ABFFF7E7004C004098
:100C6000B400002008B5064BDB8FC3F34E0303B975
:100C700008BD5A1ED2B204210248FFF799FFF7E7D8
:100C8000004C0040B400002008B5074BB3F84E30CC
:100C9000C3F34E0303B908BD5A1ED2B2052103485F
:100CA000FFF786FFF7E700BF004C0040B4000020CC
:100CB00008B5074BB3F85E30C3F34E0303B908BD64
:100CC0005A1ED2B206210348FFF772FFF7E700BFB2
:100CD000004C0040B400002082B002460B46EC46B7
:100CE000D0E900018CE8030093E8030082E80300E8
:100CF0009CE8030083E8030002B0704738B505465E
:100D00000C46FFF7E9FFAB68A268AA60A360EB6836
:100D1000E268EA60E36038BD10B584B00446684616
:100D2000FFF7F9FE21466846FFF7E8FF6846FFF740
:100D30009BFD204604B010BDF8B50F4619463D0A8C
:100D40006B1EDBB2052B11D80646F8B207280DD86A
:100D5000022A2CD0032A3CD0012A0FD0304B314A32
:100D60001A60314B79221A60FFF738FC2C4B2D4A60
:100D70001A602D4B67221A60FFF730FC6B1E2B4A5E
:100D800052F823C0820002F5407200240CF80240A1
:100D900006EBC303034483F8C443013D00EBC500E5
:100DA00006EB00100430FFF7B7FF00232FE06B1EA7
:100DB0001E4A52F82340820002F540724FF0010CA7
:100DC00004F802C006EBC3030344002283F8C423E3
:100DD000E3E76B1E154A52F823C0820002F5407209
:100DE0001CF82040E4B20CF8024006EBC3030344B5
:100DF000012283F8C423D0E70C4A52F825409A0018
:100E000002F560724FF0000C04F802C00133072BAA
:100E1000F2D933689B69394630469847F8BD00BF20
:100E2000A0000020C82C0000AC000020040000201E
:100E300008B54FF6FF710120FFF768FD08BDFEE71A
:100E400008B500F0C1FB124A0AE01068516850F87A
:100E5000230041F82300013391688B42F5D30C3213
:100E60000C4B9A4201D20023F6E70B4A08E01168C6
:100E7000002041F82300013351688B42F7D3083238
:100E8000064B9A4201D20023F6E701F03FFE00BF75
:100E9000782E0000842E0000882E0000902E000086
:100EA000002807DB00F01F02400901239340024A9B
:100EB00042F82030704700BF00E100E000280CDB62
:100EC00000F01F024009012393402030034A42F8FA
:100ED0002030BFF34F8FBFF36F8F704700E100E00A
:100EE000FEE70182826813889BB243F001031380FE
:100EF00011F0010F05D0826813889BB243F4805330
:100F0000138011F0020F06D0826813889BB223F47D
:100F100080539BB2138011F0040F04D082681388B1
:100F2000C3F30E03138011F0080F0DD082681388ED
:100F30006FEA43436FEA53439BB21380826813887E
:100F40009BB243F48043138011F0100F0ED08268DF
:100F500013886FEA43436FEA53439BB2138082685E
:100F600013889BB223F480439BB2138011F0200FAF
:100F700006D0826813889BB223F400639BB213806F
:100F800011F0400F05D0826813889BB243F40063D0
:100F90001380826813889BB223F001039BB21380F5
:100FA00070470000C160044B1B68B3FBF1F183681C
:100FB00089B2D980704700BF2C00002083680122CD
:100FC0005A837047836800225A83704738B50446B5
:100FD000114B03600379DBB1A3685A8912F0010F4A
:100FE000FAD101221A80A17CE37C0C4D002243EA55
:100FF00001212846FFF7A2FCA17C237D002243EAC1
:1010000001212846FFF79AFC054B2360204638BD96
:10101000034B0360FAE700BF0C2E0000B400002071
:10102000D82D000010B50446FFF7D0FF1821204648
:1010300000F00FFD204610BD012800D0704708B514
:101040004FF6FF73994200D008BD0D4B1A680D4B47
:101050001A600D4B0020186058609860D8601861C5
:1010600058619861D861186258629862D8621863B2
:1010700058639863D863054A054900F0E5FCE3E747
:101080003000002098000020D00400200000002044
:101090009510000010B5054C03E0103C2046FFF70A
:1010A000E3FB034B9C42F8D110BD00BF10050020AC
:1010B000D004002010B5044607482060074820608F
:1010C00000202071A160E2602382A074E07420758A
:1010D00000F03FFC204610BDD82D00000C2E000073
:1010E00038B5044683682F4A934240D02E4A934233
:1010F00044D02E4A934247D02D4A93424AD10923E5
:1011000083740623C37407230375A17CE37C294DF4
:10111000012243EA01212846FFF710FCA17C237D30
:10112000012243EA01212846FFF708FCA3680125B4
:101130001D80A26813889BB243F080031380A268CD
:10114000138903F00E031381A268538B9BB223F023
:101150000F039BB253832368DB68218A204698479C
:1011600023681B69E16820469847257138BD012333
:1011700083740223C37403230375C6E702238374B5
:10118000C37403230375C0E7032383740222C2746C
:101190000375BAE7084B094A1A60094B20221A6006
:1011A000FFF79EFE001000400014004000180040B1
:1011B000001C0040B4000020A40000207C2D000092
:1011C000B000002010B50446037923B1A368988BC2
:1011D00000F0010010BDFFF783FFF7E710B50446EC
:1011E00003793BB1A3689A8B12F0010FFAD098896A
:1011F000C0B210BDFFF774FFF4E738B504460D46E2
:10120000037933B1A3689A8B12F0020FFAD0DD8113
:1012100038BDFFF765FFF5E710B5044683682BB1CD
:101220000322014698470023A360E360204610BDD7
:1012300038B5044603797BB1A368C3F38124002544
:101240005D8304F11000FFF739FE2946044800EBE6
:101250000410FFF7E1FF38BDFFF742FFECE700BFE6
:10126000D004002000B583B08DF80710836833B137
:10127000C3680DF10701984703B05DF804FB00F067
:1012800037FA000008B58189C0F38120044B03EBD5
:101290000010836813B1C9B2FFF7E4FF08BD00BFB7
:1012A000D004002008B50248FFF7ECFF08BD00BFDE
:1012B0000010004008B50248FFF7E4FF08BD00BF7A
:1012C0000014004008B50248FFF7DCFF08BD00BF6E
:1012D0000018004008B50248FFF7D4FF08BD00BF62
:1012E000001C004038B5044600230360436083605F
:1012F000C3608B6833B10D4602229847EB68E36008
:10130000AB68A360204638BD38B505460C46FFF7EC
:10131000E3FCAB68A268AA60A360EB68E268EA60DD
:10132000E36038BD10B584B004466846FFF7DAFFC5
:1013300021466846FFF7E8FF6846FFF795FA204622
:1013400004B010BD70B504460E46037983B1A5689C
:10135000C5F381253146084800EB0510FFF7E2FF91
:10136000A36801225A8305F11000FFF799FD70BDB3
:10137000FFF7B6FEEBE700BFD004002008B54FF63C
:10138000FF710120FFF758FE08BD000082B00190F8
:10139000304B5B681AB2C3F30903002B58D012F428
:1013A000007F03D06FEA83536FEA9353294A526850
:1013B00012F4800F35D0274A526802F4E022B2F5C9
:1013C000A02F26D0244A92ED216AB8EE466AD2EDCB
:1013D0001B7AF7EE006A86EE867A9FED206A37EE7A
:1013E000067AF8EE677A37EE677ADDED017AB8EEC5
:1013F000676A07EE903AF8EEE77AC7EE875A76EE1C
:10140000E56AC6EE267AFCEEE77A17EE900A02B09D
:101410007047114A92ED226AB8EE466AD2ED1C7A04
:10142000D7E70C4A526802F4E022B2F5A02F07D0A9
:10143000094A92ED196AB8EE466AD2ED137AC8E706
:10144000054A92ED1A6AB8EE466AD2ED147AC0E700
:101450000198DCE700040140001020000000404437
:1014600010B5514B9B6803F00703052B17D8DFE835
:1014700003F003122B3A464A4B4B9B6C13F0010FBF
:1014800004D04A4B4FF400421A6008E0484B1A68F7
:10149000464B1A6003E0454B42F2B8421A60424B99
:1014A0009B6803F07003302B69D051D8102B5CD0AF
:1014B000202B36D13C4B1B6B13F4004F5AD03D4BC5
:1014C0004FF4FA321A6033E0374B1B6B13F4004FC2
:1014D00004D0364B4FF4FA321A60E0E7334B4FF446
:1014E00000421A60DBE7304B5B68C3F302433248CB
:1014F00098402E4C2060FFF749FF2060CFE72B4B30
:101500002E4A1A60CBE7284B9B6C13F0020F03D0D6
:10151000264B2B4A1A60C2E72A4B1A68234B1A60E3
:10152000BDE72BB9204B9B6C214B1A68214B1A60ED
:101530001D4B9968C1F302419A68C2F302721B48BD
:101540000368CB4003601B490B68D3400B6010BDA0
:10155000402B20D0502BEBD1134B9B6C13F0020F80
:101560001DD0144B164A1A60E2E7124B42F2B84201
:101570001A60DDE70F4B4FF400421A60D8E70A4BC0
:101580005B68C3F302430C4898400A4C2060FFF7A5
:10159000FDFE2060CCE7074B084A1A60C8E7094BFC
:1015A0001A68044B1A60C3E70004014030000020B1
:1015B000940000202C00002060E3160040787D019C
:1015C000404B4C009000002008B53D4B4FF4B54215
:1015D0009A813C4AD2F8883043F47003C2F88830CC
:1015E000394B80225A61394B5B6813F4807FFAD102
:1015F000364B374A1A60354B5B6813F4807FFAD15B
:10160000344B41F230021A615A61334946F65A139B
:101610000B60324B324A1A60324A538D9BB243F010
:1016200008035385938D9BB223F008039BB29385E7
:10163000CB6843F0B07343F48033CB60002300E009
:101640000133C72B0ADC244A926C12F0020FF7D048
:1016500021490A6D42F002020A65F1E7224B4FF47C
:1016600000421A601F4A538D9BB243F00103538519
:10167000938D9BB223F001039BB2938502F5374211
:10168000D36843F48073D360002300E00133C72B99
:101690000ADC114A926C12F0010FF7D00E490A6D64
:1016A00042F001020A65F1E70B4B4FF480325A60B9
:1016B0000E4A9A6000221A60FFF7D2FE08BD00BFF2
:1016C0000048004000ED00E0003004E00000014070
:1016D00005005A69001001400004014090000020FC
:1016E000006CDC02004D004094000020550000100A
:1016F000FEE70000012800D070474FF6FF739942C3
:10170000FAD1054B00221A605A609A60DA601A74A6
:101710005A749A74F0E700BFB0050020F8B50F4680
:101720001646044678B1194BD86800282BD00368B8
:101730001D6813460A462146A847F8BD00253D55B9
:101740000D2D1CD00134B4421BDA1048006800286B
:10175000F4D003685B68984705460C4B1B7C002B54
:10176000EDD00A4B58680028E9D003689B682946E9
:101770009847074B1B68986800F0F2FADFE7601C97
:10178000DBE72046D9E70020D7E700BFB0050020FF
:1017900040000020F0B585B00E461546012826D041
:1017A0000446022828D0384BD868002869D003683E
:1017B0005F6813460A462146B8471BE00134AC4235
:1017C00017DA314B58680028F8D003689B68315D00
:1017D00098472D4B5B7C002BF0D0335D0A2BEDD16D
:1017E000294B586803689B680D219847E6E7002459
:1017F000E5E7284605B0F0BD234B9B68002B3ED0A3
:10180000224B93E803000290ADF80C10204B93E8B4
:10181000030000908DF8041002AC05E01A4B9868A4
:10182000013403689B68984721780029F6D1002489
:1018300000E00134AC4215DA134B98680028F8D068
:1018400003689B68315D98470F4B9B7C002BF0D061
:10185000335D0A2BEDD10C4B986803689B680D2112
:101860009847E6E76C4605E0074B98680134036843
:101870009B68984721780029F6D12846BAE7104698
:10188000B8E70020B6E700BFB0050020382E000002
:10189000402E000008B50146064BD86818B1036811
:1018A000DB68984708BD00F099FC092303604FF0FE
:1018B000FF30F7E7B005002003460A460649C8682E
:1018C00028B110B50168CC691946A04710BD4FF486
:1018D0000053536000207047B00500208446134633
:1018E000054AD06830B110B50268146A0A466146EC
:1018F000A04710BD00207047B005002002280FD976
:1019000008B50146074BD86818B103685B6A984769
:1019100008BD00F063FC092303604FF0FF30F7E7D8
:1019200001207047B005002008B541604274044BA7
:101930001868642301220021806800F0F9FA08BDCC
:101940004000002008B54FF6FF710120FFF7D2FEDE
:1019500008BD7047FEE7000008B5054B1B8813F46F
:10196000807F02D0FFF7F6FF08BDFFF79BFCFBE787
:101970000010004008B5054B1B8813F4807F02D08F
:10198000FFF7E8FF08BDFFF795FCFBE700140040F8
:1019900008B5054B1B8813F4807F02D0FFF7DAFFF0
:1019A00008BDFFF78FFCFBE70018004008B5054BAA
:1019B0001B8813F4807F02D0FFF7CCFF08BDFFF730
:1019C00089FCFBE7001C004008B5064B1B8803F4AC
:1019D000C063B3F5C06F02D0FFF7BCFF08BDFFF7CF
:1019E000B9FFFBE70020004008B5064B1B8803F455
:1019F000C063B3F5C06F02D0FFF7ACFF08BDFFF7BF
:101A0000A9FFFBE70024004008B5064B1B8803F440
:101A1000C063B3F5C06F02D0FFF79CFF08BDFFF7AE
:101A200099FFFBE70028004008B5064B1B8803F42C
:101A3000C063B3F5C06F02D0FFF78CFF08BDFFF79E
:101A400089FFFBE7002C00400B460146184600F0DA
:101A5000CDB800F000B800F01BB8000008B5064B88
:101A6000044613B10021AFF30080044B1B6803B19F
:101A70009847204601F02CF80000000004070020E1
:101A8000024B0146186800F02DB800BF400000204E
:101A9000024B0146186800F0CFBB00BF4000002099
:101AA00070B50F4E0C463168054611B900F074FB55
:101AB00030602146284600F06FFB431C03D14FF0F5
:101AC000FF34204670BDC41C24F00304A042F8D0AB
:101AD000211A284600F060FB0130F2D1EFE700BF89
:101AE000C80500202DE9F041CD1C25F0030508357F
:101AF0000C2D38BF0C25002D064601DBA94204D968
:101B00000C2333600020BDE8F081314F00F062F813
:101B10003B681C4644BB29463046FFF7C1FF431CC7
:101B2000044650D13C682146002941D1002C44D0C4
:101B30002368304604EB030800F02EFB80453CD1BF
:101B400021686D1A29463046FFF7AAFF013034D0CC
:101B500023682B4423603B68002B36D05A68A2428E
:101B600029D100225A600EE02268521B1DD40B2A94
:101B700016D96119A342256018BF5960636808BF70
:101B8000396062514B60304600F02AF804F10B00D6
:101B9000231D20F00700C21AB5D01B1AA350B2E7CC
:101BA000A3426268DED13A60EDE723466468B1E79C
:101BB0000C464968B8E71346CEE70C23336030463D
:101BC00000F00EF89EE70560DDE75B60FFDE00BF1A
:101BD000C4050020014800F02CBB00BF28070020EE
:101BE000014800F027BB00BF2807002010B50446BD
:101BF0000448134620B10A4602202146AFF3008074
:101C000010BD00BF00000000B1F90C202DE9F0412B
:101C1000170705460C4656D44B68002B02DC0B6CAC
:101C2000002B3DDDE66A002E3AD0002312F48052EC
:101C30002F68216A2B6025D0626DA389580705D5CE
:101C40006368D21A636B0BB1236CD21A216AE66AFD
:101C500000232846B047411C24D000236360236939
:101C60002360A389DA0400D56065616B2F60B9B188
:101C700004F14403994202D0284600F0DDFA002323
:101C800063630DE001232846B047461C0246D4D1C9
:101C90002B68002BD1D01D2B01D0162B2BD12F6000
:101CA00000202FE02A68B4F90C3042B11D2A01D07F
:101CB000162A22D10023636023692360D5E762607E
:101CC00022692260CEE70F69002FE9D093070E68E2
:101CD00008BF4B690F6018BF0023A6EB07088B6095
:101CE000B8F1000FDCDD216AA66A43463A46284671
:101CF000B047002808DCB4F90C3043F04003A3815E
:101D00004FF0FF30BDE8F0810744A8EB0008E7E79B
:101D100038B50B6905460C4613B90025284638BD71
:101D200018B1036A0BB900F0BBF8B4F90C30002B02
:101D3000F3D0626ED00704D4990502D4A06D00F0F0
:101D400078FA28462146FFF75FFF636EDA070546FB
:101D5000E4D4A3899B05E1D4A06D00F06BFADDE724
:101D6000014620B9044A0549054800F0B1B8054BC1
:101D70001868FFF7CDBF00BF34000020111D000020
:101D80004400002040000020002310B50446C0E9B4
:101D90000033C0E90433836081814366C28183617B
:101DA000194608225C3000F0BAF90D4B63620D4B06
:101DB000A3620D4BE3620D4B23630D4B24629C42E7
:101DC00006D003F16802944202D0D0339C4205D180
:101DD00004F15800BDE8104000F02ABA10BD00BF61
:101DE00099200000BB200000F32000001721000014
:101DF000CC050020024A0349034800F069B800BF3F
:101E000034000020111D00004400002041680C4BEC
:101E1000994210B5044601D0FFF77AFFA168094B3B
:101E2000994202D02046FFF773FFE168064B9942C2
:101E300004D02046BDE81040FFF76ABF10BD00BFC8
:101E4000CC050020340600209C06002010B50B4B6A
:101E50000B4C0C4A1A60204600220421FFF794FF25
:101E600004F1680001220921FFF78EFF04F1D00080
:101E70000222BDE810401221FFF786BF04070020B0
:101E8000CC050020F51D0000014800F0D2B900BFCC
:101E900029070020014800F0CDB900BF2907002024
:101EA00010B50446FFF7F0FF236A1BB1BDE81040F0
:101EB000FFF7F0BF044B2362044B1B68002BF5D1E6
:101EC000FFF7C4FFF2E700BF0D1E0000040700206B
:101ED0002DE9F8430746884614460026D4E90195C3
:101EE000B9F1010905D52468002CF7D13046BDE8C9
:101EF000F883AB89012B07D9B5F90E30013303D034
:101F000029463846C04706436835E9E70FB407B5A8
:101F1000064904AB086853F8042B8168019300F06C
:101F2000FFF903B05DF804EB04B0704740000020F7
:101F30002DE9F7431D46574B1F6804460E46904651
:101F400027B13B6A13B93846FFF7AAFFB8F1020F71
:101F500006D0B8F1010F00F29A80002DC0F29780F0
:101F6000636ED90705D4A3899A0502D4A06D00F049
:101F700060F921463846FFF7CBFE616B41B104F1B1
:101F80004403994202D0384600F056F900236363B7
:101F90000023A3616360A3891B0603D5216938462A
:101FA00000F04AF9A38923F44A6323F00303B8F14C
:101FB000020FA38161D001AB6A462146384600F08A
:101FC00061FCA3891843A0812DBB009D2846FFF723
:101FD00057FD0646002852D1DDF80090A94540D1B2
:101FE0004FF0FF35B4F90C3043F00202A281002219
:101FF000A26004F147022260226101226261626EE6
:10200000D60704D4980502D4A06D00F013F9284631
:1020100003B0BDE8F083002ED8D03B6A13B9384630
:10202000FFF73EFFB8F1010F08BFA389266004BF88
:1020300043F00103A381B4F90C3013F00802C4E9A2
:1020400004651ED0D90741BF00226D42A260A56180
:1020500058BFA560626ED20701D49B0513D5002539
:10206000D5E74846FFF70CFD06460028B8D0A389FF
:1020700043F08003A3814D46CFE70025B2E7A94690
:10208000F5E7A260E6E7A06D00F0D4F8E7E74FF0CF
:10209000FF35BCE74000002010B50C46B1F90E102A
:1020A00000F068F80028ABBF636DA3891B1823F408
:1020B0008053ACBF6365A38110BD2DE9F0411F467D
:1020C0008B89DB0505460C46164605D5B1F90E1081
:1020D0000223002200F03CF8A389B4F90E1023F487
:1020E0008053A38132463B462846BDE8F04100F0CC
:1020F00063B810B50C46B1F90E1000F029F8431C76
:10210000A38915BF606523F4805343F48053A381F2
:1021100018BFA38110BDB1F90E1000F009B8024438
:102120000346934200D1704703F8011BF9E7000012
:1021300038B5064D0023044608462B60FFF7AAFB7E
:10214000431C02D12B6803B1236038BD080700206F
:1021500038B5074D04460846114600222A601A4643
:10216000FFF7BCFB431C02D12B6803B1236038BDD1
:102170000807002038B5074D0446084611460022DE
:102180002A601A46FFF7CAFA431C02D12B6803B132
:10219000236038BD0807002038B5064D00230446EB
:1021A00008462B6000F086FC431C02D12B6803B16B
:1021B000236038BD0807002038B5074D044608469F
:1021C000114600222A601A46FFF7E4FA431C02D1A6
:1021D0002B6803B1236038BD08070020014B186845
:1021E000704700BF4000002070B50D4D0D4C641BC2
:1021F000A4100026A64209D10B4D0C4C00F06AFC3D
:10220000641BA4100026A64205D170BD55F8043BFE
:1022100098470136EEE755F8043B98470136F2E758
:10222000EC2A0000EC2A0000EC2A0000002B000041
:10223000704770477047000038B50546002941D007
:1022400051F8043C0C1F002BB8BFE418FFF7C2FC88
:102250001D4A136833B9636014602846BDE83840EE
:10226000FFF7BEBCA34208D9206821188B4201BFEA
:1022700019685B6809182160EDE71A465B680BB1C5
:10228000A342FAD911685018A0420BD1206801442A
:10229000501883421160E0D118685B6853600844AD
:1022A0001060DAE702D90C232B60D6E720682118EA
:1022B0008B4204BF19685B68636004BF0918216022
:1022C0005460CAE738BD00BFC40500209368013BD5
:1022D000002B10B4936008DA9469A34201DB0A2949
:1022E00003D15DF8044B00F02FBB1368581C10603D
:1022F000197008465DF8044B7047F8B506460F465E
:102300001446D518AC4201D1002007E014F8011B97
:102310003A463046FFF7DAFF431CF3D1F8BD000020
:102320002DE9F04F0D469DB014469846064618B16B
:10233000036A0BB9FFF7B4FD6B6ED90705D4AB89FF
:102340009A0502D4A86DFFF774FFAB891B0701D56E
:102350002B699BB92946304600F034FB70B16B6E97
:10236000DC0704D54FF0FF301DB0BDE8F08FAB891E
:102370009805F7D4A86DFFF75DFFF3E700230993F5
:1023800020238DF82930CDF80C803023DFF8AC8184
:102390008DF82A304FF0010923469A4613F8012B95
:1023A0000AB1252AF9D1BAEB040B0BD05B462246C1
:1023B00029463046FFF7A1FF013000F0A780099AB7
:1023C0005A4409929AF80030002B00F09F800023B5
:1023D0004FF0FF32CDE905230AF1010A0493079378
:1023E0008DF853301A935446052214F8011B5348B4
:1023F00000F0C6FB049AD8B9D10644BF20238DF85B
:102400005330130744BF2B238DF853309AF8003014
:102410002A2B15D0079A544600204FF00A0C21466B
:1024200011F8013B303B092B4BD9B0B1079214E0B6
:10243000A0EB080309FA03F313430493A246D2E77F
:10244000039B191D1B680391002BBBBF5B4242F02D
:10245000020207930793B8BF049223782E2B0AD168
:1024600063782A2B32D1039B1A1D1B68039243EA1F
:10247000E37302340593DFF8D4A021780322504699
:1024800000F07EFB38B1049BA0EB0A0040228240A2
:1024900013430134049314F8011B29488DF82810C4
:1024A000062200F06DFB00283FD0264B1BBB039B90
:1024B000073323F0070308330393099B3B44099335
:1024C0006AE70CFB02320C460120A8E70023013426
:1024D000059319464FF00A0C204610F8012B303AAC
:1024E000092A03D9002BC6D00591C4E70CFB0121B2
:1024F00004460123F0E703AB00932A46124B04A9DC
:102500003046AFF300800746781CD6D16B6ED907F2
:1025100005D4AB899A0502D4A86DFFF78BFEAB8971
:102520005B063FF51FAF09981EE703AB00932A46F1
:10253000054B04A9304600F079F8E4E7452E000089
:102540004F2E000000000000FB2200004B2E000078
:102550002DE9F047164698468A680B69DDF8209009
:102560009342B8BF1346336091F8432007460C46A8
:102570000AB1013333602368990642BF33680233DE
:102580003360256815F0060506D104F1190AE368E1
:1025900032689B1AAB4226DC94F843302268003B39
:1025A00018BF012392062BD404F14302414638465A
:1025B000C84701301ED02368226903F00603042BAC
:1025C00002BFE5683368ED1AA3680CBF25EAE5751C
:1025D00000259342C4BF9B1AED1800261A34B54259
:1025E0001AD1002008E00123524641463846C84728
:1025F000013003D14FF0FF30BDE8F0870135C6E769
:10260000E1185A1C302081F84300224494F8451008
:1026100082F843100233C7E7012322464146384679
:10262000C8470130E6D00136D9E700002DE9FF4761
:102630000F7E0C9E782F914680460C469A4601F1FB
:10264000430207D8622F0AD8002F00F0DD80582FF0
:1026500000F0C38004F1420684F842703AE0A7F12A
:102660006303152BF6D801A151F823F0C52600000D
:10267000D9260000552600005526000055260000EA
:1026800055260000D92600005526000055260000DA
:102690005526000055260000EF27000067270000A0
:1026A000A72700005526000055260000112800002D
:1026B000552600006727000055260000552600001B
:1026C000AF27000033681A1D1B68326004F1420610
:1026D00084F842300123A8E031682368081D306087
:1026E0001E0601D50D6803E05D06FBD5B1F900506B
:1026F0006168002D78DA2D20002984F84300A1605C
:102700002DDA5E486D420A231646B5FBF3F103FB52
:102710001157C75D06F8017D2F46BB420D46F4D91F
:10272000082B0BD12368DF0708D52369616899421C
:10273000DEBF302306F8013C06F1FF36921B226112
:10274000CDF800A04B4603AA21464046FFF700FF04
:1027500001306FD14FF0FF3004B0BDE8F08723F0B7
:1027600004032360CDE721683368080653F8045B4F
:1027700002D4490648BFADB26F2F4048336014BF42
:102780000A230823002184F843106668A660002EFF
:10279000BADB216821F004012160002DB4D1002EA4
:1027A000B2D11646BCE7236843F0200323603448C7
:1027B000782784F84570236831681F0651F8045B58
:1027C00002D45F0648BFADB23160D90744BF43F0C1
:1027D000200323601DB11023D4E72848E9E72368CC
:1027E00023F020032360F6E724480A23CDE733686B
:1027F00025686169181D30602E061B6801D51960B7
:1028000002E06806FBD5198000232361164697E78E
:1028100033681A1D32601E6862680021304600F07D
:10282000AFF908B1801B606063682361002384F8FE
:10283000433085E72369324649464046D047013058
:1028400088D023689B0714D4E068039B9842B8BFE4
:10285000184681E70123324649464046D0470130B9
:102860003FF478AF0135E36803995B1AAB42F1DCC2
:10287000EAE7002504F11906F5E700BF562E00002F
:10288000672E000070B50C46B1F90E10002996B005
:1028900015461E460DDAA38913F0800F4FF0000194
:1028A00014BF40234FF48063002031602B6016B0CA
:1028B00070BD6A4600F0DCF80028ECDB019901F4F9
:1028C0007041A1F50053594259414FF48063EBE741
:1028D0008B89F7B59D0706460C4607D504F14703DB
:1028E000236023610123636103B0F0BD01AB6A463D
:1028F000FFF7C8FF009F054639463046FFF7F2F85C
:1029000048B9B4F90C309A05EED423F0030343F030
:102910000203A381E2E7A389206043F08003A3813F
:10292000019BC4E904075BB1B4F90E10304600F016
:10293000B1F828B1A38923F0030343F00103A38175
:10294000A3891D43A581CFE7F8B50E461446054679
:1029500018B1036A0BB9FFF7A3FAA369A360A389AF
:102960001A0701D5236943B92146284600F02AF801
:1029700018B14FF0FF373846F8BD23682269981A1E
:102980006369F6B28342374605DC21462846FFF7E5
:10299000BFF90028EDD1A368013BA36023685A1C4E
:1029A00022601E706269431C9A4204D0A389DB072F
:1029B000E1D50A2EDFD121462846FFF7A9F90028E4
:1029C000D9D0D6E738B5294B054618680C4618B15A
:1029D000036A0BB9FFF764FAB4F90C30190722D473
:1029E000DA0607D409222A6043F04003A3814FF09E
:1029F000FF3033E0580712D5616B41B104F1440355
:102A0000994202D02846FFF717FC00236363A3898D
:102A100023F02403A3810023636023692360A38937
:102A200043F00803A38123694BB9A38903F42073FE
:102A3000B3F5007F03D021462846FFF749FFB4F9DC
:102A40000C3013F001020AD00022A26062695242E7
:102A5000A261226942B913F08000C5D138BD99073F
:102A600058BF6269A260F4E70020F7E74000002049
:102A700038B5074D00230446084611462B60FEF783
:102A80001BFF431C02D12B6803B1236038BD00BF7C
:102A90000807002038B5064D0023044608462B6081
:102AA000FEF72CFF431C02D12B6803B1236038BD15
:102AB00008070020044A05491368002B08BF0B468D
:102AC00018441060184670470C0700202C0700209F
:102AD000FEE700BFF8B500BFF8BC08BC9E467047D3
:102AE000F8B500BFF8BC08BC9E4670474D01000019
:102AF000B1050000310E00007D13000045190000F3
:102B000025010000A3F5803A704700BF174B002B4A
:102B100008BF134B9D46FFF7F5FF00218B460F467C
:102B20001348144A121AFFF7FAFA0E4B002B00D082
:102B300098470D4B002B00D098470020002104003F
:102B40000D000D48002802D00C48AFF30080FFF7BD
:102B50004BFB20002900FDF70BFBFEF77FFF00BFBA
:102B6000000008000000000000000000000001203C
:102B7000900000202C070020000000000000000052
:102B800001F0FF01102A2BDB10F0070F08D010F81E
:102B9000013B013A8B422DD010F0070F42B3F6D122
:102BA000F0B441EA012141EA014122F007047FF03B
:102BB00000070023F0E80256083C85EA010586EA92
:102BC000010685FA47F5A3FA87F586FA47F6A5FACE
:102BD00087F68EB9EED1F0BC01F0FF0102F00702DA
:102BE00032B110F8013B013A83EA010313B1F8D185
:102BF0000020704701387047002D06BF3546033866
:102C0000073815F0010F07D1013015F4807F02BF9E
:102C1000013015F4C03F0130F0BC0138704700BFEF
:082C2000E4FEFF7F010000004B
:102C280025640A00433A5C55736572735C646934C1
:102C380036313634335C4D6963726F436F6E74722C
:102C48006F6C6C546563686E696B5C594148414CA4
:102C58005C7372635C4D43555C6D737034333270D2
:102C6800343031725C61646331345F6D7370343356
:102C7800322E6370700000000000000000000000A9
:102C8800000000000000000000000000000000003C
:102C9800000000000000000000000000000000002C
:102CA80000000000BD020000E10100007504000002
:102CB8000D02000025020000A9020000190300000F
:102CC800433A5C55736572735C64693436313634E3
:102CD800335C4D6963726F436F6E74726F6C6C54C2
:102CE8006563686E696B5C594148414C5C737263FB
:102CF8005C4D43555C6D73703433327034303172CF
:102D08005C6770696F5F6D73703433322E637070F7
:102D180000000000000000000000000000000000AB
:102D2800000000000000000000000000000000009B
:102D3800000000000000000000000000000000008B
:102D4800000000000000000000000000FD0A000074
:102D5800E10500002906000071070000390D000098
:102D6800550B0000C1070000210800007D08000085
:102D7800AD080000433A5C55736572735C6469344E
:102D880036313634335C4D6963726F436F6E7472DB
:102D98006F6C6C546563686E696B5C594148414C53
:102DA8005C7372635C4D43555C6D73703433327081
:102DB800343031725C756172745F6D7370343332A4
:102DC8002E6370700000000000000000000000008A
:102DD80000000000000000000000000000000000EB
:102DE80000000000000000000000000000000000DB
:102DF80000000000000000000000000000000000CB
:102E080000000000C5110000DD110000FB110000EA
:102E1800E30E0000A50F000045130000311200006A
:102E2800BD0F0000C50F0000CD0F000025100000E9
:102E38001B5B33316D0000001B5B306D00232D30B0
:102E48002B2000686C4C00656667454647003031AA
:102E580032333435363738394142434445460030F9
:102E68003132333435363738396162636465660028
:0C2E7800902E00000000002090000000E0
:0C2E840000000000900000209C060000F0
:102E900000000000008009422080094200840942AD
:102EA000208409420088094220880942008C094296
:102EB000208C0942009009422090094200366E01A0
:102EC000006CDC020000000003000000CC050020C4
:102ED0004400002000000000CC0500203406002043
:102EE0009C06002000000000000000000000000020
:102EF00000000000000000000000000000000000D2
:102F000000000000000000000000000000000000C1
:102F100000000000000000000000000000000000B1
:0400000300000E41AA
:00000001FF
