:1000000000000120190F0000170F0000170F00005B
:10001000170F0000170F0000170F0000000000006E
:10002000000000000000000000000000C51F0000EC
:10003000170F000000000000591F0000511F0000B2
:10004000170F0000170F0000170F0000170F000018
:10005000170F0000170F0000170F0000170F000008
:10006000170F0000170F0000170F0000170F0000F8
:10007000170F0000170F0000170F0000170F0000E8
:10008000391D0000551D0000711D00008D1D000070
:10009000A91D0000C91D0000E91D0000091E000087
:1000A00071060000170F0000170F0000170F000067
:1000B000170F0000170F0000170F0000170F0000A8
:1000C000170F0000170F0000170F0000D10C0000E1
:1000D000F50C0000190D00003D0D0000610D000041
:1000E000890D00000348044B834202D0034B03B147
:1000F00018477047F0060020F006002000000000BE
:100100000548064B1B1AD90F01EBA301491002D079
:10011000034B03B118477047F0060020F00600209B
:100120000000000010B5064C237843B9FFF7DAFF52
:10013000044B13B10448AFF300800123237010BDBA
:10014000A50F002000000000CC56010008B5054BAB
:100150001BB105490548AFF30080BDE80840FFF733
:10016000CFBF00BF000000008C0F0020CC56010064
:1001700010B52DED068B8CB026234FF4E1324249A9
:1001800006A801F003F8012206A9404801F0BCFDD1
:100190003F4C04940E218DF8141023681B6808222C
:1001A0002046984702940D218DF80C1023681B6897
:1001B00008222046984700940B218DF804102368EC
:1001C0001B680822204698474FF47A7001F02EFBF6
:1001D0002F4C2368DB680E21204698479FED2D8A1F
:1001E00030EE489A2368DB680D212046984770EE70
:1001F000488A2368DB680B212046984730EE488AFE
:10020000DFED257AC9EE27AA88EEA7AAC8EE279ABD
:1002100022480AF0EBFF19EE100A12F00DFD02461B
:100220000B461F480AF044FF1AEE900A12F004FD34
:1002300002460B461B4C20460AF03AFF18EE900A85
:1002400012F0FAFC02460B4617480AF031FF1AEE8C
:10025000100A12F0F1FC02460B4614480AF028FF7F
:1002600018EE100A12F0E8FC02460B4610480AF09D
:100270001FFF19EE900A12F0DFFC02460B462046E3
:100280000AF016FFA0E700BF00100040600C00203D
:10029000AC0B00203333D33F8D9C853DDC3C01000B
:1002A000E43C0100F43C0100043D0100143D010068
:1002B000243D0100FEE70000172904D8343100EB8B
:1002C00041008088704708B5034B044A1A60044B0C
:1002D00040221A60FFF7EEFF04070020343D0100C2
:1002E0001807002070B504460D4603681E699B6818
:1002F0009847024629462046B04770BD08B507EE2C
:10030000902AF8EE677A9FED167A67EE877A343195
:1003100000EB41008388013B072B19D8DFE803F08D
:100320000409180E181818139FED0E7A87EE870A25
:1003300008BD9FED0D7A87EE870AF9E79FED0B7AEE
:1003400087EE870AF4E79FED0A7A87EE870AEFE7E0
:10035000084B094A1A60094B64221A60FFF7AAFF8A
:100360003333534000007F4300C07F4400F07F459B
:1003700000FC7F4604070020343D010018070020E0
:10038000024A0260024A0260704700BFB43D0100A9
:10039000903D010008B517290AD801F1340300EB9C
:1003A000430082800D290BD90F2916D83F2308E07E
:1003B0000B4B0C4A1A600C4B2E221A60FFF77AFF87
:1003C0002D235B1AC3F3C70103F00703032243EA9B
:1003D0000121064800F01EFB08BD5923F1E700BFCC
:1003E00004070020343D01001807002030070020DA
:1003F00010B50446044B0360044B0360A02101F0D8
:1004000061FE204610BD00BFB43D0100903D0100DB
:10041000054B1B793BB10023034A137100E0013304
:10042000B3F57A7FFBDB70470000244210B5044629
:10043000124B0360124B0360FFF7EAFF002309E051
:10044000104A991D42F8213052F8210042F821004B
:100450000133DBB2172BF3D90022A4F89C20094BFF
:100460000949196059685960C3F83C21C3F8402113
:10047000064B4FF080721A60204610BD903D01007F
:10048000B43D0100002001401044204400E100E0A0
:10049000012800D070474FF6FF739942FAD110B58A
:1004A000044C2046FFF7C2FF034A0449204601F0EE
:1004B00003FE10BDAC0B00200000002081030000F3
:1004C00038B505460C46FFF7A3FF1C4A536823F0D6
:1004D00030035360611E072927D8DFE801F0040BC1
:1004E00026142626261D154B5A685A600123A5F8A6
:1004F0009C3038BD114A536843F010035360022307
:10050000A5F89C30F5E70D4A536843F0200353608B
:100510000423A5F89C30ECE7084A536843F0300305
:1005200053600823A5F89C30E3E7054B054A1A60A1
:10053000054BC5221A60FFF7BDFE00BF0020014039
:1005400004070020343D01001807002010B51729CA
:100550002CD80C46B0F89C2001F1340300EB430387
:1005600099888A422AD0FFF7ABFF164B5A6822F4CB
:10057000F8125A605A6842EA04425A601A6822F431
:10058000C0221A601A681A601A6842F003021A60E0
:100590000D4B93F84030002BFAD1263403F1804301
:1005A00003F5903353F8240080B210BD074B084A7E
:1005B0001A60084B45221A60FFF77CFEFFF728FF00
:1005C000D3E700BF002001400000244204070020C0
:1005D000343D01001807002038B505460C460B29AC
:1005E0000ED94C08063C00EB840043683BB104F193
:1005F00026011E4A52F8211089B2A0B2984738BD90
:10060000FFF706FF95F86A20184B063253F82210C0
:1006100021F4804143F82210D3F8402122F00E0249
:10062000C3F84021D3F8502142F00E02C3F8502104
:10063000082C16D00A2C16D0062C10D000216A6E79
:100640003AB195F86A302633084850F8230080B252
:100650009047064A136843F003031360CFE7022173
:10066000EDE70121EBE70421E9E700BF00200140AD
:1006700008B5034BD3F854110248FFF7ADFF08BD8E
:1006800000200140AC0B002008B54FF6FF7101209F
:10069000FFF7FEFE08BD0000002807DB00F01F0288
:1006A000400901239340024A42F82030704700BFBE
:1006B00000E100E0FEE7000008B50B0A5A1ED2B2C6
:1006C000092A0CD8C9B2072909D8013B084A52F8AF
:1006D000233013F82100003818BF012008BD054B56
:1006E000054A1A60054B33221A60FFF7E3FF00BF8B
:1006F0000400002008070020D03D01001C07002056
:1007000010B50B0A03F1FF3C5FFA8CFCBCF1090F3A
:100710002AD85FFA81FEBEF1070F25D8013B00EB16
:10072000030C9CF8FEC34CFA01FC1CF0010F40D0F6
:10073000184490F8080440FA01F111F0010F2ED08E
:10074000D2B13D4A52F823004FEA8E0E0EF18001DD
:100750004FF0000C00F801C052F823300EF1400EAB
:10076000012203F80E2023E0344B354A1A60354B42
:100770003A221A60FFF79EFF2F4A52F823004FEAF1
:100780008E0E0EF140014FF0000C00F801C052F83F
:1007900023300EF1800E012203F80E2008E02649D6
:1007A00051F823104FEA8E03803382F00102CA54BD
:1007B00010BD00EB030C9CF8F4C34CFA01FC1CF0D8
:1007C000010F30D0184490F8120440FA01F111F0F2
:1007D000010F20D07AB118494FEA8E0E0EF1400079
:1007E000012251F82340225451F823300EF1800E9B
:1007F00003F80E20DCE710494FEA8E0E0EF1800060
:10080000002251F82340225451F823300EF1400EBB
:1008100003F80E20CCE7084951F823104FEA8E0365
:100820008033CA54C4E7044951F823104FEA8E03B9
:100830004033CA54BCE700BF040000200807002072
:10084000D03D01001C07002008B50B0A5A1ED2B289
:10085000092A11D85FFA81FCBCF1070F0CD8013BC3
:10086000094A52F8233013F82C2003689B68B2FA27
:1008700082F25209984708BD044B054A1A60054B9D
:100880005E221A60FFF716FF040000200807002010
:10089000D03D01001C07002010B5080A431EDBB242
:1008A000052B18D8C9B2072915D8421E0E4B89004E
:1008B00001F5607C4FF0000E53F8224004F80CE084
:1008C00053F8223001F5507101225A54223040B2BF
:1008D000FFF7E2FE10BD054B054A1A60054B90225A
:1008E0001A60FFF7E7FE00BF0400002008070020A1
:1008F000D03D01001C07002008B50B0A5A1ED2B2D9
:10090000052A0CD8C9B2072909D8013B084A52F870
:100910002330890001F5507100225A5408BD054B5F
:10092000054A1A60054B9A221A60FFF7C3FE00BF02
:100930000400002008070020D03D01001C07002013
:1009400010B50446836813B1032201469847204638
:1009500010BD000070B506460546084B45F8043B3F
:1009600000F5417403E0103C2046FFF7E9FFA54283
:10097000F9D1034B3360304670BD00BF5C3E0100CF
:100980002C3E010010B50446FFF7E4FF40F21C4185
:10099000204601F097FB204610BD000000B50F4B2C
:1009A000036084460E4B4CF8043B4FF0050E0CE000
:1009B00000221A605A609A60DA6001391033002907
:1009C000F6DA0EF1FF3E0CF1800CBEF1000F02DBF7
:1009D00063460721F3E75DF804FB00BF2C3E0100EE
:1009E0005C3E0100012800D070474FF6FF7399422A
:1009F000FAD110B5044C2046FFF7D0FF034A044952
:100A0000204601F059FB10BD3007002000000020F7
:100A10005509000010B50B0A581EC0B2092815D898
:100A2000C9B2072912D8013B0C48890001F5A07C06
:100A300002F0010E50F8234004F80CE050F8233087
:100A400001F5C071C2F340025A5410BD044B054A6F
:100A50001A60054BAA221A60FFF72CFE0400002042
:100A600008070020D03D01001C0700202DE9F843B5
:100A70000E4614460B0ACAB2591EC9B2092900F221
:100A800090800546072A00F28C80013B00EB030CA6
:100A90009CF8FE030121B14020EA01008CF8FE031E
:100AA0009CF8F40320EA01008CF8F4039CF8080495
:100AB00020EA01008CF808049CF8120420EA0100E6
:100AC0008CF812043F4F57F82300920002F180087F
:100AD0004FF0000C00F808C057F8230002F1C00ED8
:100AE00000F80EC057F8230002F1400900F809C0D1
:100AF00014F0020F04D057F82300012700F8087003
:100B000014F0040F05D0EF1897F8FE03084387F898
:100B1000FE0314F0080F0BD0EF1897F8F403084306
:100B200087F8F403274850F82300012700F80970DC
:100B300014F0100F0FD0EF1897F80804084387F847
:100B400008042048012750F8232002F80E7050F8BE
:100B5000230000F8097014F0200F0BD0E81890F86B
:100B600012240A4380F81224164A52F82330012234
:100B700003F80E2014F0C00F1BD114F4807F05D0B1
:100B80002B689B68012231462846984714F4007F61
:100B900005D02B689B680022314628469847BDE85F
:100BA000F883094B094A1A60094BB2221A60FFF711
:100BB00081FD054B054A1A60054BD4221A60FFF7E8
:100BC00079FD00BF0400002008070020D03D01008F
:100BD0001C07002070B504460D4616460022FFF79C
:100BE00019FF324629462046FFF740FF70BD38B551
:100BF00004460023036043608360C3608B6833B1A5
:100C00000D4602229847EB68E360AB68A36020467C
:100C100038BD10B5044683682BB1032201469847BE
:100C20000023A360E360204610BD000070B50D0AEC
:100C30006B1EDBB2052B10D80446CEB2072E0CD8A3
:100C40000368DB699847013D06EBC50604EB061017
:100C500000210430FFF7DDFF70BD044B044A1A6029
:100C6000044B88221A60FFF725FD00BF080700200B
:100C7000D03D01001C07002008B5836813B1C3688C
:100C8000984708BD00F018FFF8B5044616464D1EFB
:100C9000EF0002EBC50004EB00100430FFF7ECFF9F
:100CA0003C44344494F8C4337BB1084951F82500DE
:100CB000B30003F5407410F82620D2B2025551F863
:100CC000252003F560730021D154F8BD04000020F5
:100CD00008B5064BDB89C3F34E0303B908BD5A1EA2
:100CE000D2B201210248FFF7CFFFF7E7004C0040E6
:100CF0003007002008B5064BDB8BC3F34E0303B966
:100D000008BD5A1ED2B202210248FFF7BDFFF7E725
:100D1000004C00403007002008B5064BDB8DC3F3C4
:100D20004E0303B908BD5A1ED2B203210248FFF791
:100D3000ABFFF7E7004C00403007002008B5064B3A
:100D4000DB8FC3F34E0303B908BD5A1ED2B2042190
:100D50000248FFF799FFF7E7004C004030070020FA
:100D600008B5074BB3F84E30C3F34E0303B908BDC3
:100D70005A1ED2B205210348FFF786FFF7E700BFEE
:100D8000004C00403007002008B5074BB3F85E3038
:100D9000C3F34E0303B908BD5A1ED2B2062103485D
:100DA000FFF772FFF7E700BF004C0040300700205C
:100DB00082B002460B46EC46D0E900018CE8030005
:100DC00093E8030082E803009CE8030083E8030043
:100DD00002B0704738B505460C46FFF7E9FFAB682F
:100DE000A268AA60A360EB68E268EA60E36038BDCD
:100DF00010B584B004466846FFF7F9FE2146684600
:100E0000FFF7E8FF6846FFF79BFD204604B010BDE2
:100E1000F8B50F4619463D0A6B1EDBB2052B11D8FB
:100E20000646F8B207280DD8022A2CD0032A3CD057
:100E3000012A0FD0304B314A1A60314B79221A60A7
:100E4000FFF738FC2C4B2D4A1A602D4B67221A6095
:100E5000FFF730FC6B1E2B4A52F823C0820002F5CC
:100E6000407200240CF8024006EBC303034483F8ED
:100E7000C443013D00EBC50006EB00100430FFF752
:100E8000B7FF00232FE06B1E1E4A52F8234082005A
:100E900002F540724FF0010C04F802C006EBC303E8
:100EA0000344002283F8C423E3E76B1E154A52F87B
:100EB00023C0820002F540721CF82040E4B20CF816
:100EC000024006EBC3030344012283F8C423D0E7A6
:100ED0000C4A52F825409A0002F560724FF0000C5F
:100EE00004F802C00133072BF2D933689B693946F5
:100EF00030469847F8BD00BF08070020D03D0100EC
:100F00001C0700200400002008B54FF6FF710120E7
:100F1000FFF768FD08BDFEE708B500F0C1FB124A07
:100F20000AE01068516850F8230041F823000133AB
:100F300091688B42F5D30C320C4B9A4201D20023BC
:100F4000F6E70B4A08E01168002041F8230001335E
:100F500051688B42F7D30832064B9A4201D20023E4
:100F6000F6E711F0CBFC00BFD0560100DC560100C3
:100F7000E0560100E8560100002807DB00F01F02E0
:100F8000400901239340024A42F82030704700BFD5
:100F900000E100E000280CDB00F01F024009012303
:100FA00093402030034A42F82030BFF34F8FBFF305
:100FB0006F8F704700E100E0FEE7018282681388CE
:100FC0009BB243F00103138011F0010F05D082683A
:100FD00013889BB243F48053138011F0020F06D0A4
:100FE000826813889BB223F480539BB2138011F064
:100FF000040F04D082681388C3F30E03138011F02A
:10100000080F0DD0826813886FEA43436FEA534399
:101010009BB21380826813889BB243F48043138091
:1010200011F0100F0ED0826813886FEA43436FEA05
:1010300053439BB21380826813889BB223F480438E
:101040009BB2138011F0200F06D0826813889BB2E8
:1010500023F400639BB2138011F0400F05D0826827
:1010600013889BB243F400631380826813889BB299
:1010700023F001039BB2138070470000C160044B52
:101080001B68B3FBF1F1836889B2D980704700BF58
:101090002C000020836801225A8370478368002255
:1010A0005A83704738B50446114B03600379DBB1AE
:1010B000A3685A8912F0010FFAD101221A80A17C8B
:1010C000E37C0C4D002243EA01212846FFF7A2FCF5
:1010D000A17C237D002243EA01212846FFF79AFCE8
:1010E000054B2360204638BD034B0360FAE700BF81
:1010F000143F010030070020E03E010010B5044617
:10110000FFF7D0FF1821204600F0DCFF204610BD7D
:10111000012800D0704708B54FF6FF73994200D000
:1011200008BD0D4B1A680D4B1A600D4B002018605E
:1011300058609860D860186158619861D8611862E9
:1011400058629862D862186358639863D863054AF6
:10115000054900F0B1FFE3E7300000200007002060
:101160004C0B0020000000206D11000010B5054C54
:1011700003E0103C2046FFF7E3FB034B9C42F8D111
:1011800010BD00BF8C0B00204C0B002010B5044696
:10119000074820600748206000202071A160E260BD
:1011A0002382A074E074207500F0C3FD204610BDBA
:1011B000E03E0100143F010038B5044683682F4A21
:1011C000934240D02E4A934244D02E4A934247D075
:1011D0002D4A93424AD1092383740623C3740723FB
:1011E0000375A17CE37C294D012243EA01212846B5
:1011F000FFF710FCA17C237D012243EA0121284650
:10120000FFF708FCA36801251D80A26813889BB224
:1012100043F080031380A268138903F00E03138147
:10122000A268538B9BB223F00F039BB253832368B6
:10123000DB68218A2046984723681B69E1682046BD
:101240009847257138BD012383740223C374032397
:101250000375C6E702238374C37403230375C0E7D1
:10126000032383740222C2740375BAE7084B094A48
:101270001A60094B20221A60FFF79EFE0010004002
:101280000014004000180040001C004030070020FF
:101290000C070020843E01002007002010B5044602
:1012A000037923B1A368988B00F0010010BDFFF70C
:1012B00083FFF7E710B5044603793BB1A3689A8B27
:1012C00012F0010FFAD09889C0B210BDFFF774FF79
:1012D000F4E738B504460D46037933B1A3689A8B19
:1012E00012F0020FFAD0DD8138BDFFF765FFF5E798
:1012F00010B5044683682BB10322014698470023AA
:10130000A360E360204610BD38B5044603797BB185
:10131000A368C3F3812400255D8304F11000FFF767
:1013200039FE2946044800EB0410FFF7E1FF38BD01
:10133000FFF742FFECE700BF4C0B002000B583B085
:101340008DF80710836833B1C3680DF10701984722
:1013500003B05DF804FB00F0AFFB000008B5818925
:10136000C0F38120044B03EB0010836813B1C9B2B2
:10137000FFF7E4FF08BD00BF4C0B002008B5024892
:10138000FFF7ECFF08BD00BF0010004008B50248A1
:10139000FFF7E4FF08BD00BF0014004008B5024895
:1013A000FFF7DCFF08BD00BF0018004008B5024889
:1013B000FFF7D4FF08BD00BF001C004038B504464D
:1013C0000023036043608360C3608B6833B10D46C4
:1013D00002229847EB68E360AB68A360204638BD03
:1013E00038B505460C46FFF7E3FCAB68A268AA6077
:1013F000A360EB68E268EA60E36038BD10B584B0D2
:1014000004466846FFF7DAFF21466846FFF7E8FF23
:101410006846FFF795FA204604B010BD70B5044643
:101420000E46037983B1A568C5F381253146084886
:1014300000EB0510FFF7E2FFA36801225A8305F1D4
:101440001000FFF799FD70BDFFF7B6FEEBE700BF98
:101450004C0B002008B54FF6FF710120FFF758FE36
:1014600008BD000082B00190304B5B681AB2C3F334
:101470000903002B58D012F4007F03D06FEA835386
:101480006FEA9353294A526812F4800F35D0274AE5
:10149000526802F4E022B2F5A02F26D0244A92ED41
:1014A000216AB8EE466AD2ED1B7AF7EE006A86EE44
:1014B000867A9FED206A37EE067AF8EE677A37EE85
:1014C000677ADDED017AB8EE676A07EE903AF8EEDA
:1014D000E77AC7EE875A76EEE56AC6EE267AFCEE24
:1014E000E77A17EE900A02B07047114A92ED226A2D
:1014F000B8EE466AD2ED1C7AD7E70C4A526802F47D
:10150000E022B2F5A02F07D0094A92ED196AB8EE91
:10151000466AD2ED137AC8E7054A92ED1A6AB8EE28
:10152000466AD2ED147AC0E70198DCE70004014076
:10153000001020000000404410B5514B9B6803F0A0
:101540000703052B17D8DFE803F003122B3A464AAE
:101550004B4B9B6C13F0010F04D04A4B4FF40042ED
:101560001A6008E0484B1A68464B1A6003E0454B86
:1015700042F2B8421A60424B9B6803F07003302B72
:1015800069D051D8102B5CD0202B36D13C4B1B6B33
:1015900013F4004F5AD03D4B4FF4FA321A6033E047
:1015A000374B1B6B13F4004F04D0364B4FF4FA3219
:1015B0001A60E0E7334B4FF400421A60DBE7304B30
:1015C0005B68C3F30243324898402E4C2060FFF71B
:1015D00049FF2060CFE72B4B2E4A1A60CBE7284B00
:1015E0009B6C13F0020F03D0264B2B4A1A60C2E704
:1015F0002A4B1A68234B1A60BDE72BB9204B9B6C12
:10160000214B1A68214B1A601D4B9968C1F30241A6
:101610009A68C2F302721B480368CB4003601B49FF
:101620000B68D3400B6010BD402B20D0502BEBD16A
:10163000134B9B6C13F0020F1DD0144B164A1A600B
:10164000E2E7124B42F2B8421A60DDE70F4B4FF46B
:1016500000421A60D8E70A4B5B68C3F302430C48A8
:1016600098400A4C2060FFF7FDFE2060CCE7074B56
:10167000084A1A60C8E7094B1A68044B1A60C3E7A6
:101680000004014030000020FC0600202C00002057
:1016900060E3160040787D01404B4C00F8060020C6
:1016A00008B5344B4FF4B5429A81334AD2F88830AA
:1016B00043F47003C2F88830304B80225A613049BD
:1016C00046F65A130B602F4B2F4A1A602F4A538D40
:1016D0009BB243F008035385938D9BB223F008031C
:1016E0009BB29385CB6843F0B07343F48033CB60F7
:1016F000002300E00133C72B0ADC214A926C12F070
:10170000020FF7D01E490A6D42F002020A65F1E7A6
:101710001F4B4FF400421A601C4A538D9BB243F09A
:1017200001035385938D9BB223F001039BB29385F4
:1017300002F53742D36843F48073D360002300E09E
:101740000133C72B0ADC0E4A926C12F0010FF7D05E
:101750000B490A6D42F001020A65F1E7084B4FF4AC
:1017600080325A6033229A6000221A60FFF7E4FE4A
:1017700008BD00BF0048004000ED00E0003004E07C
:1017800000040140F8060020006CDC02004D00401F
:10179000FC060020FEE70000012800D070474FF64D
:1017A000FF739942FAD1034B00221A605A609A6083
:1017B000F4E700BF4C0C002070B504461646034603
:1017C000164A43F8442B002545645D609D6005651D
:1017D0000F2204300AF046F8E5742575022363757C
:1017E000A561E56100220023C4E90823A5622686DD
:1017F000304600F089FCE06238B10023636384F86E
:101800003830E3632364204670BD054B054A1A60F7
:10181000054B36221A60FFF7BDFF00BF883F01006D
:1018200010070020403F01002407002010B50E4B98
:101830001B68B3B10D490A6849681A6259624FF4CE
:101840007A7404FB00F00A4CA4FB004080091218D3
:1018500041F100011A62596201225A7500F068FBD9
:1018600010BD00F043FBFBE7580C0020F006002001
:10187000D34D62102DE9F041214B1B68DC6B002534
:101880002E462F4615E0216A626A1E4B18685B6877
:101890008842934116D30023637513E0A06A03685E
:1018A0009B68984788B9002363750EE0E46B0135A7
:1018B000ADB2154B9B689D420FDA94F81480637D9E
:1018C000012BE0D0637D032BE8D0637D002BEDD1AD
:1018D0004645EBD246462746E8E74FB1084B1B6822
:1018E000BB4203D0094B1F6000F0F8FABDE8F0815D
:1018F000074B084A1A60084BBF221A60FFF74AFFDD
:10190000580C0020F00600204C0C00205C0C00203D
:1019100010070020403F01002407002008B5084AB6
:1019200013685168013341F1000113605160054BA8
:101930001A68936901339361FFF79CFF08BD00BFEC
:10194000F0060020580C002008B54430FFF794F949
:1019500008BD43687BB10368CB6343680B640368CD
:1019600019644368D9634160012381F83830836882
:10197000013383607047C963096441600160F3E724
:1019800038B531B104460D4690F838300BB9002314
:101990000EE0144B144A1A60144B42221A60FFF7EF
:1019A000F9FEE06A4FF0A50C00F803C001339BB2CA
:1019B000208E9842F5D81146204600F06BFA257526
:1019C00000236375A361E36100200021C4E90801DD
:1019D000A36200F0B5FA21460548FFF7BAFF00F010
:1019E000B4FA38BD10070020403F01002407002052
:1019F0004C0C00208368012B11D00A6CCB6BD36395
:101A00000A6C1A6403688B420DD043688B420DD078
:101A1000002381F838308368013B836070470023DE
:101A200003604360F4E7CB6B0360EEE70B6C43604D
:101A3000EEE7000090F8383003B9704710B504465F
:101A400000F07EFA21460448FFF7D4FF00F07DFA4B
:101A500000F06EFA10BD00BF4C0C002010B504461B
:101A6000074B0360FFF7E6FFE06A08B100F02CFBCC
:101A70000023E36204F14400FEF762FF204610BD3C
:101A8000883F010010B50446FFF7E8FF58212046C3
:101A900000F018FB204610BD10B5044603689B6893
:101AA00098472046FFF7C6FF10BD08B54FF6FF71F7
:101AB0000120FFF771FE08BDFEE70000012800D0FD
:101AC00070474FF6FF739942FAD1054B00221A6016
:101AD0005A609A60DA601A745A749A74F0E700BF18
:101AE000600C0020F8B50F461646044678B1194B35
:101AF000D86800282BD003681D6813460A46214683
:101B0000A847F8BD00253D550D2D1CD00134B44229
:101B10001BDA104800680028F4D003685B68984717
:101B200005460C4B1B7C002BEDD00A4B5868002857
:101B3000E9D003689B6829469847074B1B6898685B
:101B400008F03EFFDFE7601CDBE72046D9E7002016
:101B5000D7E700BF600C00205C040020F0B585B022
:101B60000E461546012826D00446022828D0384BB8
:101B7000D868002869D003685F6813460A46214682
:101B8000B8471BE00134AC4217DA314B58680028E3
:101B9000F8D003689B68315D98472D4B5B7C002B28
:101BA000F0D0335D0A2BEDD1294B586803689B6850
:101BB0000D219847E6E70024E5E7284605B0F0BD8B
:101BC000234B9B68002B3ED0224B93E803000290EE
:101BD000ADF80C10204B93E8030000908DF8041032
:101BE00002AC05E01A4B9868013403689B6898477B
:101BF00021780029F6D1002400E00134AC4215DA46
:101C0000134B98680028F8D003689B68315D9847AB
:101C10000F4B9B7C002BF0D0335D0A2BEDD10C4B8E
:101C2000986803689B680D219847E6E76C4605E0D5
:101C3000074B9868013403689B689847217800290E
:101C4000F6D12846BAE71046B8E70020B6E700BF4D
:101C5000600C0020943F01009C3F010008B5014644
:101C6000064BD86818B10368DB68984708BD09F0CF
:101C7000D7FE092303604FF0FF30F7E7600C002028
:101C800003460A460649C86828B110B50168CC6900
:101C90001946A04710BD4FF4005353600020704711
:101CA000600C002084461346054AD06830B110B558
:101CB0000268146A0A466146A04710BD00207047BA
:101CC000600C002002280FD908B50146074BD868E0
:101CD00018B103685B6A984708BD09F0A1FE0923A3
:101CE00003604FF0FF30F7E701207047600C0020E1
:101CF00008B509F095FE162303604FF0FF3008BDCC
:101D00004FF0FF307047000008B541604274044B4B
:101D10001868642301220021806809F06FFA08BD69
:101D20005C04002008B54FF6FF710120FFF7C6FEE6
:101D300008BD7047FEE7000008B5054B1B8813F48B
:101D4000807F02D0FFF7F6FF08BDFFF717FBFBE728
:101D50000010004008B5054B1B8813F4807F02D0AB
:101D6000FFF7E8FF08BDFFF711FBFBE70014004099
:101D700008B5054B1B8813F4807F02D0FFF7DAFF0C
:101D800008BDFFF70BFBFBE70018004008B5054B4B
:101D90001B8813F4807F02D0FFF7CCFF08BDFFF74C
:101DA00005FBFBE7001C004008B5064B1B8803F44D
:101DB000C063B3F5C06F02D0FFF7BCFF08BDFFF7EB
:101DC000B9FFFBE70020004008B5064B1B8803F471
:101DD000C063B3F5C06F02D0FFF7ACFF08BDFFF7DB
:101DE000A9FFFBE70024004008B5064B1B8803F45D
:101DF000C063B3F5C06F02D0FFF79CFF08BDFFF7CB
:101E000099FFFBE70028004008B5064B1B8803F448
:101E1000C063B3F5C06F02D0FFF78CFF08BDFFF7BA
:101E200089FFFBE7002C0040FEE7000010B50446E8
:101E3000024B0360FFF712FE204610BDAC3F0100CD
:101E400010B50446044B0360FFF708FE58212046F6
:101E500000F038F9204610BDAC3F0100024B1A6873
:101E6000024B1A60704700BF5C0C0020580C002029
:101E7000014B1B68D86A7047580C0020014B1B6847
:101E8000586B7047580C0020014B1B685863704713
:101E9000580C002038B5038E442B0DD9C46A443B3E
:101EA000E21842634FF080751564084DD5635062A7
:101EB00051B10222E25038BD054B064A1A60064B6A
:101EC00049221A60FFF7B0FF0322F3E7991A0000D6
:101ED00014070020803C010028070020024A5368B4
:101EE00043F080535360704700ED00E00E4B1B68D9
:101EF0000E4AA2FB03239B09013B4FF0E0214B61FB
:101F000000228A6105230B6106E04FF0E0231B6984
:101F100013F4803FF9D001328242F6D34FF0E02330
:101F200000221A61704700BF30000020D34D6210BC
:101F300001DF704720BF704708B5FFF7FBFFFCE7E4
:101F4000BFF34F8FBFF36F8F7047BFF36F8F704733
:101F500008B5FFF7E3FC08BDEFF30980EFF3148346
:101F60001EF0100F04BF43F0100320ED108A20E98B
:101F7000F80F03461846FFF787FF0446FFF778FF80
:101F80000346E31A0A2BD4BF01230023DBB2002B44
:101F900001D0FFF749FFFFF761FFFFF76FFF03462F
:101FA0001846B0E8F80F6FF0020E13F0100F1CBFC8
:101FB0002EF0100EB0EC108A83F3148880F3098899
:101FC000704700BF1EF0040F0CBFEFF30880EFF363
:101FD00009800449C1F800E000F006F80149D1F891
:101FE00000E070472C07002010B5836913F8023C0D
:101FF00023B1012B41D1FFF73DFC3DE0582000F01B
:1020000065F80446C8222149FFF7D6FB204B236020
:10201000002201212046FFF7B3FC1E4B1A681E4B1D
:102020001A601E4BE02283F822201D4B1B681D4ABC
:10203000A2FB03239B09013BB3F1807F0AD24FF03F
:10204000E0225361154BE02183F8231000239361B4
:1020500007231361144B6FF002021A600E4B1B68CA
:102060005B6B03F1240282F309881B7883F31488E5
:10207000BFF36F8FBFF36F8F10BD0C4B0C4A1A600C
:102080000C4BFE221A60FFF7CFFE00BFD43C0100CC
:10209000AC3F01004C0C0020580C002000ED00E08B
:1020A00030000020D34D62102C07002014070020C0
:1020B000803C01002807002003460846194608F026
:1020C000B3BB00BF00F03EB800F03CB8012838BFF9
:1020D000012010B50446204607F02AFF00B110BDCC
:1020E00000F0ACF908B18047F5E7042000F094F85F
:1020F000024B034A0349036000F04EF9EC3F010034
:1021000015210000D83F0100FFF7E0BF00487047ED
:10211000B83F010010B5034B0360044600F0B8F867
:10212000204610BDEC3F010010B5054B036004468E
:1021300000F0AEF820460421FFF7C4FF204610BD92
:10214000EC3F010007F0FCBE1C494B6830B550F86D
:10215000085CA0F1080453B304EB050E734526D8C0
:1021600020D05A6801F1040C32B90EE0516803F135
:10217000040C134639B10A469645F7D302BFDEE98F
:1021800000215960AD18DCF800301A6899188C42AB
:1021900011D05B6840F8043CDCF8003040F8085C83
:1021A0005C6030BD1A685B682A4440F8082C40F82F
:1021B000043C4C6030BD2A441A6030BD9C0B0020AA
:1021C000144900F108034868082B38BF0823F8B108
:1021D000073323F00703043102E0011D406880B19A
:1021E00002689342F9D830B4D41A072C0AD9C5181A
:1021F00042686A60C450086803600D60083030BCF3
:1022000070477047456802600D60083030BC704709
:10221000704700BF9C0B002010B500F180042046E1
:1022200007F086FE034630B180220021184609F0EF
:1022300085FA803010BD2046FFF7C2FF0346002814
:10224000F2D100F03DF800BF064A9368803898420A
:1022500005D9D2681344984201D2FFF775BF07F041
:102260006FBE00BF9C0B002038B5084C4FF41E65B4
:102270002846E56007F05CFEA06020B10023C0E9BD
:102280000053606038BDE060FBE700BF9C0B00209E
:10229000704700BF704700BF00487047F83F01001B
:1022A00010B504210446FFF70DFF204610BD00BF06
:1022B00008B5804707F026FE06F03AFB07F022FE3D
:1022C00008B5034B1868BFF35B8FFFF7F1FF00BF42
:1022D0003800002008B58047FFF7F2FF08B5034B30
:1022E0001868BFF35B8FFFF7F5FF00BF34000020D5
:1022F000024B1868BFF35B8F704700BF38000020A7
:10230000024B1868BFF35B8F704700BF340000209A
:10231000012810B51AD8BFF35B8FA1F1280353E849
:10232000002F013A43E800200028F8D1BFF35B8F6B
:102330005AB951F81C3C01F158040BB1204698479A
:102340002046BDE81040FFF77FBF10BD51F8140CC8
:10235000FFF7AEFF002310B540E91E1240F8803CA5
:102360000446FFF7CDFF44F8700CFFF7C1FF0749A3
:10237000074A084B44F8581C44F8542C44F86C0C99
:1023800044F8503CA4F1800010BD00BF474E5543B7
:10239000432B2B001123000070B504460D46164652
:1023A00006F050FB4368013332462946436020461D
:1023B000FFF7D0FF0446012344F8283B204610F0E5
:1023C0000FFD204606F0B4FAFFF77AFF10B506F0CD
:1023D00039FBD0E900420132426064B194F8202018
:1023E000472A0AD0002202602034204610F01CFD4B
:1023F000204606F09DFAFFF763FF94F821204E2A4D
:10240000F0D194F82220552AECD194F82320432AC5
:10241000E8D194F82420432AE4D194F825202B2AEB
:10242000E0D194F826202B2ADCD194F82720012A29
:10243000D8D8626952426261D6E700BF024B186881
:10244000BFF35B8F704700BF980B002010B5034BA4
:102450000360044600F048F9204610BDE840010042
:1024600010B5054B0360044600F03EF920460C21F0
:10247000FFF728FE204610BDE840010070B582B08D
:102480000446069E96420D4609D0A068046806964A
:10249000246A2946A44602B0BDE870406047194648
:1024A0000192009300F064F8DDE900320028ECD0DE
:1024B000062002B070BD00BF2DE9F04F0D4681B07F
:1024C0001946DDE90A8BDDE90CA91C4607461646CC
:1024D00000F04EF880B9D04527D0B868234604688C
:1024E000CDE90CA9CDE90A8BE46932462946A44618
:1024F00001B0BDE8F04F6047002DC9F8008089F8B1
:1025000004600CDBA844C24514BF4FF001084FF033
:10251000060889F80680002001B0BDE8F08F02357A
:10252000F9D1012389F80630F5E75946384600F01D
:102530001FF80028D1D089F80560ECE72DE9F041BB
:1025400006460F4614461D4600F008F948B9B06823
:10255000016822468C692B463946A446BDE8F04105
:102560006047BDE8F08100BF704700BF00207047A2
:10257000814211D008B5406803782A2B0AD04968F7
:102580000B782A2B08BF013110F08EFCB0FA80F0D6
:10259000400908BD002008BD0120704770B53B4BC5
:1025A0001A7882B0002A41D101241C7006F04EFD39
:1025B000002831D04468364D23782A2B08BF0134D7
:1025C00000224FF0FF30114601AB0190204606F08B
:1025D0008BF82B683022DB68064601212D4808F075
:1025E00057FD019B93B12B682046D96808F05EFB2C
:1025F0002B682948DB680222012108F049FD019B74
:1026000013B9304607F09CFCFFF7E0FE2B6830461C
:10261000D96808F04BFBEBE71D4B20481B682D22C7
:10262000DB68214608F034FD07F06CFC184B1C48B1
:102630001B681D22DB68012108F02AFD07F062FCFF
:1026400001290C4619D106F073F903689B68984775
:102650002B682146DB6804460B22124808F018FD5F
:102660002B682046D96808F021FB2B680A20D9681E
:1026700008F0AEFA06F09AF9D6E706F059F906F036
:1026800095F9D1E706F092F906F08CF8A40F002036
:102690005C04002044410100784101007C410100BC
:1026A00024410100AC41010070B5036884B00024EE
:1026B0009E690394102315460293CDE900446B46AE
:1026C0001268B0479DF8043003F00603062B03BFE1
:1026D000009B2B600120204604B070BD0098904202
:1026E0000CBF06200120704710B5034B0360044661
:1026F000FFF73AFF204610BDF041010010B5054B31
:1027000003600446FFF730FF20460821FFF7DAFC9C
:10271000204610BDF04101002DE9F041069F0899C7
:10272000099E8F42044690461D460CD029462046FD
:10273000FFF71EFF20B10123376086F80480B371D4
:102740000020BDE8F0810799FFF712FF0028EDD0C7
:1027500086F805800020BDE8F08100BF38B5154639
:102760001C46FFF705FF00B938BD08220623256087
:10277000E260237138BD00BF2DE9F04106461746DF
:102780001D460C46FFF7F4FE48B9032D07D8236811
:102790003A46314620465B69BDE8F0411847BDE83E
:1027A000F08100BF312970B5864645D828292AD83E
:1027B0000A2920D9A1F10B0C324C5FFA8CFC0120C4
:1027C00000FA0CF00440002C4DD0D2B1DEE90540F7
:1027D000844216DADEF8105004EB840C05EB8C0012
:1027E0000026013446608660CEF8144005F82C10AF
:1027F000C0E9032370BD042930D9A1F109000128E3
:10280000E3D9002070BDA1F129000828F9D801A45E
:1028100054F820F0CD270000612800005D2800005A
:10282000032800005D280000CD270000CD27000010
:10283000CB27000061280000A1F13400C0B21D28A0
:10284000DFD8114C4FF0010C0CFA00FC0CEA040428
:10285000002CBAD10D480CEA000070B1002AD0D08B
:10286000002BB3D1CDE710F47F1FAFD1084C04404B
:10287000002CC6D0002AF3D1C3E71CF0505CC0D0B6
:10288000A4E700BFFE1F802F0711C701F82E000A22
:1028900001004000F0B5C26811786E29864625D047
:1028A0003039CBB2092B2BD80026164D00206FF003
:1028B000004402E0B0EBD30F15DC0132CEF80C205F
:1028C0001378303B5FFA83FC00EB800001EB4000A3
:1028D000BCF1090F1946A4EB0303A5FB0373E9D967
:1028E00006B14042F0BD4FF0FF30F0BD531CC36055
:1028F00051783039CAB2092A02D81A460126D4E7DB
:102900000020F0BDCDCCCCCC10B5044629B9C368AD
:102910001A786AB15A1CC260197868290CD07629D5
:1029200006D12046FFF7B6FFE3681A785F2A01D088
:10293000002010BD0133E3602046FFF7ABFFE368E2
:102940001A785F2AF4D10133E360012010BD00BF83
:10295000C3681A785F2A01D00120704710B55A1C4D
:10296000C2605A785F2A044604D0FFF793FFC04341
:10297000C00F10BD0233C360FFF78CFF002807DBD8
:10298000092801DC012010BDE3681A785F2A01D014
:10299000002010BD0133E360F4E700BF002966D0DA
:1029A00038B505460C46A368012B39DCD5F81C0167
:1029B000B0F5806F03F1010332DC2278A360531E6F
:1029C000502B2DD8DFE803F03131314C2C2C2D2D3C
:1029D0003131313131313131313131313131312CEC
:1029E00031313131313131313131424231312C31BA
:1029F0003131312931313131312C2D3131313131D8
:102A00003131313131313131312C2C3129292929E0
:102A10002C313131313131313100E468002CC2D1F7
:102A200038BD2469002CBED1FAE7E168431CC5F823
:102A30001C312846FFF7B2FF21692846FFF7AEFF99
:102A4000D5F81C31013BC5F81C3138BDE1680B7865
:102A5000052BEBD1D5F838310133C5F83831E5E72E
:102A6000D5F84431E1680133C5F84431DEE77047F9
:102A7000034600202BB909E0DA682AB11B6901304E
:102A80001BB11A782F2AF7D0704770471846704745
:102A900020B909E039B10069013930B103782F2B31
:102AA000F8D000207047C06870477047F0B51446F2
:102AB0005268A5684B1C1344AB4283B00E460746D0
:102AC00011D8E5686DB96368206832461844394604
:102AD00010F0A6FBD4E9003233449D5463683344BC
:102AE000636003B0F0BDE268002AFAD155B16D0011
:102AF000AB42FCD82068294607F0E4FC38B12060DE
:102B0000A560DEE7022B4FF00205F0D8F2E7019056
:102B1000206807F015FA019B236001226360A3601F
:102B2000E260DEE70378722B07D0562B05D04B2BE3
:102B300003D0442B03D00020704701207047407819
:102B4000A0F17703012BF8D900F0DF00A0F14F00CE
:102B5000B0FA80F040097047D0F80031FF2B70B513
:102B600004460D4606D05A1CC4F80021E55484F8EA
:102B7000045170BD0026194680F8FF60D0E942324A
:102B80009847D4F8283101221344C4F82831334639
:102B9000C4F80021E55484F8045170BDD0F8103118
:102BA0008BB15A68CB681069002B0BDB20B906E0AB
:102BB0003BB10069013B10B102782F2AF8D0002008
:102BC0007047C06870470123C0F81831F7E700BFAD
:102BD000002940D02DE9F041DFF884801F4F0546E1
:102BE0000C4601262378082B08D8082B13D8DFE8D9
:102BF00003F01A12121212271A1717002C2B15D9CC
:102C0000323BDBB21B2B06D806FA03F212EA080F9E
:102C100009D1012B04D0E1682846FFF7D9FF18B984
:102C20002469002CDED10020BDE8F081172BF2D9F9
:102C3000183BDBB227FA03F3DB07ECD50020F3E700
:102C400021462846FFF7AAFF0028ECD003782F2B57
:102C5000EAD00020E8E70020704700BF01801000A4
:102C60000100E30C2DE9F041044608460D4610F042
:102C700087FB40B3013DD4F800112F184FF0000836
:102C800009E00B46BD4201F10101C4F80011E65410
:102C900084F8046117D0FF2915F8016FF1D1D4E948
:102CA000423284F8FF8020469847D4F82831012129
:102CB0000B44C4F828310023BD42C4F80011E65487
:102CC00084F80461E7D1BDE8F08100BFC2681378E1
:102CD000542B2AD110B5531CC36052785F2A044686
:102CE00025D06E2A1FD0FFF7D5FD411C1BD4E36809
:102CF0001A785F2A17D1D4E9052001338242E360B4
:102D000011DA236902EB820C03EB8C004FF0000E0A
:102D10000132C0F804E0C0F808E06261052203F85F
:102D20002C20C16010BD002010BD00207047002184
:102D3000E1E700BF2DE9F04188B00A4604461A4990
:102D400001A808F02DFB01A810F01AFB40B301AD5B
:102D5000D4F800112F184FF0000809E00B46AF42DD
:102D600001F10101C4F80011E65484F8046117D0A0
:102D7000FF2915F8016BF1D1D4E9423284F8FF80C4
:102D800020469847D4F8283101210B44C4F8283153
:102D90000023AF42C4F80011E65484F80461E7D17F
:102DA00008B0BDE8F08100BF1442010070B50446D0
:102DB000FFF770FD051E46DDE66863689B1B9D42BC
:102DC0003EDCA26873195207E36004D5725D242AC1
:102DD00004BF0133E360092D22DD2A490822304671
:102DE00008F0FCFB30B9337A2E2B2ED05F2B2CD081
:102DF000242B2AD0D4E905329A4221DD206903EB45
:102E0000830200EB82000133002242608260636132
:102E100000230370C0E9036543608360A06270BD56
:102E2000D4E9053293420BDA206903EB830200EB0D
:102E3000820001330022426082606361002EE7D18C
:102E40000020A06270BD002070BD737A4E2BD1D1DE
:102E5000E26A6369A1691632521B8B42E262EFDAC1
:102E6000226903EB83008100013302EB8000636180
:102E70000023436083605354034A1523C0E90323AE
:102E8000DFE700BF18420100244201002DE9F041B4
:102E9000C3681A78532A26D15A1CC260044658784F
:102EA00048B39A1CE26058785F2849D0A0F13003FB
:102EB000DAB2092A1BD8002205E0E56008785F280D
:102EC00034D0A0F13003D9B2092902EBC20300EBE0
:102ED000830321D8303B9A4205D8E16808781A4626
:102EE0004D1C0028E9D100252846BDE8F081A0F15D
:102EF0004102192ADFD9A36813F0080322D0191E52
:102F000018BF0121454B03F1C4051A78824221D034
:102F10001C33AB42F9D1E6E7A0F14103192BE2D80B
:102F200002EBC20300EB8303373BD4E70133226A91
:102F30009A42D8D9E26952F823502846BDE8F08178
:102F40000023F4E70029DAD0E2681278433A012A34
:102F5000D5D8D7E75E69002E58D0D4E90525AA4216
:102F6000D3F8188057DA276902EB820C07EB8C0044
:102F70004FF0000EC0F804E0C0F808E001324FF056
:102F8000180E626107F82CE0C0E90368A06200290E
:102F900039D0D3E90371E36AAA420B44E36238DA19
:102FA000236902EB820003EB8005013200266E608C
:102FB000AE606261182203F82020C5E90371E3685E
:102FC0001A78422A90D1A66A0133E3602046FFF7BF
:102FD000EDFE2A4603464D212046FFF7E3FBE3685A
:102FE0001A78422A0546EFD0A66200283FF47BAF4C
:102FF000D4E908329342BFF676AFE1695A1C41F832
:103000002300226270E7D3E90171C4E7D4E9052502
:10301000BDE70025D3E70020B8E700BFC84A01009C
:103020002DE9F043C26883B004461046FFF77AFDED
:10303000002861D113785A2B33D82F2B40F28C8083
:10304000303B2A2B00F28880DFE813F088008800EC
:103050008800880088008800880088008800880030
:103060008600860086008600860086008600C201F3
:1030700086004901B1008600AB009D0086008600F5
:103080008600860086000402880097018901860078
:103090007B0157012201AA01860086008600860076
:1030A0008800613B5FFA83FCBCF1190F54D8BA4D1C
:1030B000012101FA0CF10D40002D49D0B74903EB75
:1030C000830301EB8301D4E90535AB4280F2D5835C
:1030D000266903EB830C06EB8C0501336860A8605E
:1030E0006361272306F82C30E960E36A49680132FE
:1030F0000B44E260E36224E0002201A9204601F0D3
:10310000DFFA054640B3E3681B78462B20461CD007
:10311000FFF786FF2860F8B103781F3B012B05D825
:10312000019AC368C2602A6801922B60019D9DB11B
:10313000D4E9083293420FDAE1695A1C41F823506E
:103140002262284603B0BDE8F08300F0FFFBE1E710
:10315000BCF1140F00F00F830025F2E7204601F0C8
:10316000EBFD05460190002DF6D0D4E908329342DC
:10317000F2DAE16941F82350019D5A1C2846226287
:1031800003B0BDE8F0830132E2602046FFF748FF5C
:103190000023024626212046FFF704FB0546019046
:1031A000E1E7204600F0D2FB05460190DBE7531C27
:1031B000E3605378002BCFD0931CE3605378463BF9
:1031C000302BC9D801A151F823F000BFC134000051
:1031D00059310000593100005931000059310000C7
:1031E00059310000593100005931000059310000B7
:1031F00059310000593100005931000059310000A7
:103200005931000085340000593100005931000067
:103210005931000059310000593100005931000086
:103220005931000059310000593100005931000076
:103230005931000059310000593500005931000062
:103240002D35000015360000E5350000B5350000CD
:103250005931000085350000473700005931000022
:103260005931000059310000593100001737000072
:1032700059310000FF36000059310000593100007B
:10328000CF360000853400009F3600004536000030
:103290002046FFF71BFDE66801903378492B054671
:1032A0007FF461AF636B002B40F09D8200283FF4F8
:1032B00053AFD4E908218A42BFF64EAFE16941F825
:1032C0002200013222623278493A012A05D80136B9
:1032D000E660204600F066FE03462A462AE00132F8
:1032E000E2602046FFF79CFE00230246252120468F
:1032F000FFF758FA0546019035E75378A3F13002FD
:10330000092A05D95F2B03D0413B192B00F25E82BD
:1033100000212046FFF7BAFDE36801901A78492A98
:1033200005467FF40EAF0133E360204600F03AFE1D
:103330002A46034604212046FFF734FA0546019049
:1033400011E70132E2602046FFF76AFE00230246E1
:1033500023212046FFF726FA0546019003E70132B4
:10336000E2602046FFF75CFE002302462221204651
:10337000FFF718FA05460190F5E60132E2602046B3
:10338000FFF74EFE0023024624212046FFF70AFAEB
:1033900005460190E7E600BFFF7BEC031C500100EF
:1033A0000132E2602046FFF701FDE36801901A78E0
:1033B000492A054600F0EF812046FFF731FE2B46F3
:1033C000024621212046FFF7EDF905460190CAE6A5
:1033D000551CE56053785F2B00F0DB81303B092BF7
:1033E00000F2E6812B469C460133E36019783039C0
:1033F0000929F8D9D4E905108142ACEB0202BFF6E5
:10340000ABAE276901EB810007EB80064FEA800E27
:103410000020013182427060B06061617FF79CAE34
:103420007060B06007F80E00C6E903529CF80120F6
:103430001D465F2A7FF490AE0135E5602046FFF718
:10344000EFFD324603462A212046FFF7ABF9054639
:10345000019088E60132E2602046FFF7E1FD054673
:1034600000283FF479AE2046FFF7DAFD0346002836
:103470003FF472AE2A462B212046FFF793F905460A
:10348000019070E60123256B2363204600F05AFE6D
:1034900025630246002344212046FFF783F90546B1
:1034A000019000283FF458AEE3681A78002A3FF4F0
:1034B00053AE5A1CE2601B78452B7FF44DAE54E6A8
:1034C000D4E905318B4280F2DA81216903EB830074
:1034D00001EB8005002601336E60AE6063612C2332
:1034E00001F8203093780195303BDBB2092B94BF73
:1034F000012333462B8202D82046FFF7CBF9204622
:10350000FFF78EFDE86000283FF426AE2046FFF767
:10351000C1F9E268137813B1531CE3601378A3F187
:103520007303B3FA83F35B096B820AE6D4E90532CD
:103530009342BFF611AE2269BD4903EB8305A80093
:10354000013302EB8505636100236B60AB601354AC
:103550000E23C5E90313F4E5D4E905329342BFF61F
:10356000FBAD2269B34903EB8305A800013302EBED
:103570008505636100236B60AB6013540423C5E9C8
:103580000313DEE5D4E90532934280F273812269A8
:1035900003EB830102EB8105013300206860A86022
:1035A0006361272302F82130E36AA34AEA60043307
:1035B000E362C6E5D4E90532934280F25B81226979
:1035C00003EB830102EB8105013300206860A860F2
:1035D0006361272302F82130E36A984AEA600933DD
:1035E000E362AEE5D4E90532934280F24381226979
:1035F00003EB830102EB8105013300206860A860C2
:103600006361272302F82130E36A8D4AEA600A33B6
:10361000E36296E5D4E90532934280F22B81226978
:1036200003EB830102EB8105013300206860A86091
:103630006361272302F82130E36A824AEA60093392
:10364000E3627EE593785F2B00F00681D4E90532D2
:103650009342BFF681AD226903EB830102EB810542
:10366000002001336860A8606361432302F82130C1
:103670002046FFF70FF9E860E3681A785F2A7FF4C5
:103680006BAD0133E3602046FFF7CAFC2A460346D0
:103690002D212046FFF786F80546019063E5D4E921
:1036A0000532934280F2E680226903EB830102EB4C
:1036B0008105013300206860A8606361272302F858
:1036C0002130E36A604AEA600733E36239E5D4E90E
:1036D0000532934280F2CE80226903EB830102EB34
:1036E0008105013300206860A8606361272302F828
:1036F0002130E36A554AEA600833E36221E5204657
:10370000FFF78EFC002302464C212046FFF74AF8C3
:103710000546019027E5D4E90532934280F2AA805C
:10372000226903EB830102EB81050133002068600D
:10373000A8606361272302F82130E36A444AEA6003
:103740001133E362FDE4D4E90532934280F29280C2
:10375000226903EB830102EB8105013300206860DD
:10376000A8606361272302F82130E36A394AEA60DE
:103770000833E362E5E40132E2602046FFF716FB1E
:103780002B46024628212046FFF70CF805460190FB
:10379000E9E4002650E60133E360204600F002FC35
:1037A0002A46034604212046FEF7FCFF054603E6B1
:1037B0000123256B2363204600F0C4FC25630646E5
:1037C00000283FF4C9ACE5682A7832E6204601F0CB
:1037D000B3FA0546019000283FF4BEAC0378182BDD
:1037E0007FF4C3ACADE4731CE3602046D4F81490BE
:1037F000D4F82080E76A00F0D5FBE3681B78492BFA
:1038000006D0E660C4F81490C4F82080E762AAE409
:10381000002D3FF4A1ACD4E908139942BFF69CAC4B
:10382000E26942F82150013103462A46216281E5CE
:10383000444201003C420100605201002452010058
:103840004C520100385201007452010088520100AC
:10385000B05201009C52010003320123256BE2604B
:103860002363204600F06EFC2563054600287FF4A4
:1038700003AF71E40023DB68FFDEC368FFDE0023D3
:103880001B70FFDE30B5C26883B00023019313784C
:10389000002B34D0044601AD4F2B0CD009D82E2B71
:1038A00001D0452B0AD1019848B30369CBB103B0CD
:1038B00030BD522B02D15378452BF4D02046FFF770
:1038C000AFFB024600232E212046C2B1FEF76AFF5D
:1038D0002860A0B1E268137800F11005002BDBD15D
:1038E000E1E7C26811782729E1D1D268117C092962
:1038F000DDD1E16A5268891AE162C360D7E700202E
:1039000003B030BD70B5C3681A784A2A05461AD08C
:1039100081B12846FFF784FB044690B12846FFF7A3
:10392000B1FF034668B1224628462921BDE8704010
:10393000FEF738BF28460C46FFF7A4FF03460028D1
:10394000F1D1002070BD0133C360E2E770B50446D9
:10395000806810F480200BD1E26BB2F5006F06D8BE
:10396000511CE368E1631978462907D0E26370BD12
:10397000E3681A78462A01D0002070BD5A1CE26024
:103980005A78592A04BF0233E36001212046FFF729
:10399000B9FFE5682B78522B1AD04F2B0AD0452B54
:1039A000A36806BF0135E56000205B03DFD4E26B4E
:1039B000013ADBE7E36A202103336E1C0246E3622F
:1039C000E66000232046FEF7EDFE6B783546E6E71D
:1039D000E36A1F210233F0E7F8B5C3681F78064693
:1039E000A7B35A1CC26093F801E01F78BEF1000F24
:1039F0002ED1384D482100228B1A03EBD37302EBF2
:103A00006303180105EB031C2C582078B84206D03C
:103A100094BF5A1C19468A42EED10020F8BD607846
:103A20007045F5D1D6E905329342F6DA326903EBF7
:103A3000830102EB810000240133446084607361E0
:103A4000322302F82130C0F80CC0F8BDBE46D0E7E2
:103A50009A1CC260762F93F801E01FD1AEF13004BA
:103A6000E3B2092BC5D8FFF7A1F9D6E905318B429E
:103A70000246D2DA376903EB830107EB81000025A8
:103A800001334560856089007361002AC5D0332306
:103A9000456085607B54C0E90342F8BD632FA8D11F
:103AA000BEF1760FA5D1D0E90C34B3FA83F35B09EC
:103AB0004363FFF7B5FA736B024633B10023352138
:103AC0003046FEF76FFE7463F8BD34213046FEF7D2
:103AD00069FEF8E78C4B0100F8B5C3681A78A2F1CB
:103AE0003001092904464FD9552A56D00FD8442A07
:103AF00037D94C2A09D10133C360FFF757F905467E
:103B000018B12046FEF724FF98B9002543E0A2F142
:103B100061011929F9D86F2A056B00F0F180204660
:103B2000FFF75AFF2563054618B10378322B00F0E2
:103B3000F080E3681A78422A2DD1A66A0133E36047
:103B40002046FFF733F92A4603464D212046FEF76B
:103B500029FEE3681A78422A0546EFD0A662284675
:103B6000F8BD422AD1D9816A002955D008780028A9
:103B700050D1E26A08690244E2621A78432A61D0AD
:103B8000442A4BD0002504E0FFF710F9E3681A78C7
:103B90000546422AD1D02846F8BD5A786C2A00F052
:103BA000D880742AB1D1591CC1605A78742A76D150
:103BB000991CC1609B785F2B00F01C816E2BA4D0F8
:103BC000FEF768FE013000F12981E1680A785F2A7A
:103BD00065D1D4E905254B1CAA42E36080F2198126
:103BE000276902EB820C07EB8C05013200266E6020
:103BF000AE606261492207F82C20E860D4E9082011
:103C0000824280F20381E06940F822500132226250
:103C10004A78BEE71828ACD0432A13D05A78303AF5
:103C2000052A3FF672AF01A050F822F0FB3C0000DD
:103C3000F53C0000A33C00000B3B0000EF3C000003
:103C4000E93C00005A78492A00F0BF80A2F1310017
:103C500004283FF65AAF303A0233D6B2E360D4E9D3
:103C60000520824280F2C880276902EB820007EBC0
:103C700080054FF0000C0132C5F804C0C5F808C03B
:103C800080006261002900F0BA800722C5F804C0F4
:103C9000C5F808C03A542E7329611A7879E70B46A3
:103CA00070E74FF0030ED4E905209F1C8242E760C5
:103CB00080F29C80D4F810C002EB82000CEB8005EF
:103CC000002601326E60AE6080006261002900F063
:103CD0008D8008226E60AE600CF8002085F80CE044
:103CE00029619A783B4654E74FF0050EDBE74FF029
:103CF000040ED8E74FF0020ED5E74FF0010ED2E7E1
:103D00005A786E2A7FF40BAF02330022C36002633D
:103D100005E7C268E36A9168126807330B44E362FF
:103D200013786C2B7FF405AF5378692B7FF401AFC8
:103D30009378002B7FF4FDAE2046FFF737F82A4634
:103D4000034637212046FEF72DFDE36805461A7825
:103D50001FE7591CC1605A786C2AA0D10233C36096
:103D6000FFF790FDE3680646002858D01A78452AE8
:103D70007FF408AF591CE1605B785F2B4CD06E2B51
:103D80003FF4C3AE2046FEF785FD013046D4E1681E
:103D90000A785F2A83D1D4E905254B1CAA42E36047
:103DA00037DA276902EB820C07EB8C0501324FF002
:103DB000000EC5F804E0C5F808E06261472207F884
:103DC0002C20C5E903604A78E3E6591CE1609A7843
:103DD000A2F13100042815D80333303AE3602046BD
:103DE000D6B2FFF71DF9A16AE36838E79A78002593
:103DF0003B46CEE60020ECE61A780025C9E61A78A4
:103E00000D46C6E65A7800250B46C2E64A78354686
:103E1000BFE64A780025BCE60020BCE7E3681A78D4
:103E20000025B6E6F8B5C26813784C2B32D1531C86
:103E3000C36051785F2904464BD05A2913D15A1CCC
:103E4000E2605B78472B3DD0542B3BD000212046CD
:103E500001F0D6F8E3681A780646452A1AD10133EC
:103E6000E3603046F8BDFFF7DBF8064690B1037813
:103E7000272B12D0E26815786E2D57D03D21452DA5
:103E80005CD0134603E0E3601D78452D28D0013354
:103E9000002DF8D100263046F8BDC3681A7C1AB14F
:103EA000E26A5968521AE262274918680EF0FCFF6C
:103EB000E26815780028DFD1452D41D06E2D35D030
:103EC0003D21DEE7204600F0A3FCE36806461A78B1
:103ED000C3E7931CC36092785A2AB0D00026BCE78F
:103EE0009D1AD4E90503984226DA276900EB800C75
:103EF00007EB8C034FEA8C0E4FF0000C0130654548
:103F0000C3F804C0C3F808C0606115DDC3F804C07D
:103F1000C3F808C007F80EC0C3E90325324620469F
:103F2000FEF740FCE36806461A7896E7531CE36008
:103F300055783E211A46A2E70023EFE70025D0E797
:103F40000132E260A7E700BF5442010038B5C26801
:103F500013784C2B20D0044608D8493B012B16D8A7
:103F60000132BDE83840C26000F01CB8582B0ED1B9
:103F700001320123056BC260036300F0E3F8E368DC
:103F800025631A78452A0BD10133E36038BD2046FA
:103F9000BDE83840FFF744B8BDE83840FFF742BFFE
:103FA000002038BD70B5C368866A1A78452A82B089
:103FB00004461FD00023019301AD09E0FEF7F2FB98
:103FC000286000F1100560B1E3681A78452A0BD02B
:103FD0002046FFF7BBFF024600232F212046002A80
:103FE000ECD1002002B070BD0198A6620133E360FD
:103FF00002B070BD5A1C0023C2602F211A4602B0C5
:10400000BDE87040FEF7CEBB70B5C2681378A3B3AD
:1040100004460E460025303B4A2B2ED8DFE803F03D
:10402000303030303030303030302D2D2D2D2D2DA2
:104030002D2D2D307E2E2D2D2D742D2D30262D2D18
:104040002D2D2D633C302D2D2D2D2D2D2D2D2D2D58
:104050002D30303030303030303030303030303063
:104060003030303030303030303030002DB1511CF5
:10407000E16053780A46002BCDD10025284670BD5B
:104080002046FFF729FD03465DB12A46012120465F
:10409000FEF788FB054605E02046FEF717FE0346BF
:1040A000D5B91D46E2681378452BE7D0002EE2D043
:1040B000002DE2D0D4E908318B42DEDAE16941F823
:1040C0002350013323621378002BA4D1D5E7FEF7E8
:1040D000A7FF0346002DE4D001212A462046FEF723
:1040E00061FB0546DEE701212046FEF7CFFE0346D1
:1040F00005B32A4601212046FEF754FBE2681378F7
:104100000546002B87D1B8E7002DB6D00132E2601A
:104110002046FFF747FF04210346DEE7537803F00C
:10412000DF03542B2046D2D0FFF7D6FC0346002DE8
:10413000D2D1B6E7E2681D461378002B7FF46BAF4F
:104140009BE700BFC26813784C2B00F0CD80542B46
:1041500000F0CC80732B2DE9F041044624D0662B6F
:1041600055D0A3F13001092944D96F2B3DD0692BDB
:1041700040F0498253786C2B1DD1931CC3600025FD
:104180001A78002A00F0BB805B78002B00F0B78023
:104190004521204600F05AFA2A460346312120469E
:1041A000BDE8F041FEF7FEBA5378722B00F039817A
:1041B000702B00F060812046FFF70EFC05460028BA
:1041C00000F09D800378322B50D0332B00F090808C
:1041D000342B40F09480E3681A785F2A00F019814C
:1041E0002046FFF7AFFF034653E053786E2BE2D132
:1041F0000232C2602046FFF76FFC054600287ED0E1
:10420000E3681A78492A7CD02846BDE8F0815378C3
:10421000702BD0D1931CC3609378542B00F0228173
:104220005F2B7BD06E2B6AD0FEF734FB411C66D42B
:10423000E3681A785F2A62D16FF00042013391423D
:10424000E3605CD00230D4E90532934257DA226948
:1042500003EB830102EB8105013300266E60AE6043
:104260006361062302F82130E860CDE7C168E36AA4
:104270008A680E68023A1344E3623378732B0FD1D5
:104280007278742A0CD1B27852B92046FEF7C8FE73
:1042900003462A4620463721BDE8F041FEF782BAA0
:1042A000CF68032F2BD8DFE807F048027C50327824
:1042B000702A37D06D2A35D00027732B40F0D68076
:1042C0007378502B40F0D280B378002B40F0CE8032
:1042D0002046FFF767FE0346002FDAD01A46392141
:1042E0002046FEF75FFAD3E7FFF79CBDFEF7EEBC72
:1042F000C368012B3FF474AF022B00D0EBB1002553
:1043000082E70133E3602046FFF74CFE2A4603466E
:1043100004212046BDE8F041FEF744BA0332C260F2
:10432000012090E771789142C6D1E26811785F2947
:10433000C3D10132E2603378BEE72A46204600232B
:10434000BDE8F0413621FEF72DBA712B40F0B9805F
:104350007278752A40F0B580B278002A40F0B180BA
:104360002046FFF7EFFE06462046FFF7EBFE074626
:104370002046FFF7E7FE03460028C0D03A463C211E
:104380002046FEF70FFA324603463B212046FEF751
:1043900009FA2A4603463A212046BDE8F041FEF7D5
:1043A00001BAEB681B685A78632A00F0EF80337813
:1043B000662B00F00F81642B40F003817378692B2A
:1043C00040F0FF80B378002B40F0FB802046FFF7E1
:1043D00083FB07463378632B40F0A48072786C2A05
:1043E00040F0A080B278002A40F09C804521204611
:1043F00000F02CF9064633463A4639212046FEF7AE
:10440000D1F92A46034638212046BDE8F041FEF79F
:10441000C9B90133E3604521204600F017F903468E
:1044200037E7931C816BC360937831B1552B44D827
:10443000422B2CD8303B092B30D92046FEF7F0FD1B
:1044400006462046FFF748FBE3681A78492A0546E6
:1044500000F08F802B46324620460121BDE8F04116
:10446000FEF7A0B90332C2600020ECE62046FFF759
:1044700069FE034630E70232C260FFF763FE0023A5
:1044800002464C212046BDE8F041FEF78BB96E4A4A
:10449000433BDBB222FA03F3DB07CED54FF0FF3309
:1044A000A36300212046FFF7AFFDE3681A78452A91
:1044B0000646C6D10133E360C3E7613B192BBCD884
:1044C000ECE7642B06D17378582B03D1B378002B1B
:1044D0003FF446AF3378662B00F081806E2B7FF47B
:1044E0000EAF7378772B02D0612B7FF408AF5F217A
:1044F000204600F0ABF806462046FEF791FDE36843
:104500001A78452A07467AD0702A6CD0692A7FF437
:10451000F6AE5B786C2B7FF4F2AE2046FFF712FE0E
:1045200003462BE7642B3FD17278742A3CD1B278D2
:10453000002A39D1E3681A78672A47D0732A02D152
:104540005B78722B38D02046FFF7C6FAE3681A78FA
:10455000492A06467FF44FAF0133E3602046FFF758
:1045600021FD3246034604212046FEF71BF906468C
:1045700041E70133E3602046FFF714FD2A46034676
:1045800004212046FEF70EF9054663E71B78A3F1E8
:104590007202012A03D9633B012B3FF608AF204684
:1045A000FEF73EFD074615E7702B05D17378742B97
:1045B00002D1B378002BBDD02046FFF7C3FD0646DD
:1045C00019E72046FFF7BEFD074603E75B78732B2C
:1045D000B9D1F1E72046FFF7FFF90746FAE6204692
:1045E000FFF7FAF9BFE65A78692A7FF488AE0233FA
:1045F000E3604521204600F029F80346BEE601337A
:10460000E3600023BAE6742B12D0752B7FF4D3AD90
:104610000132C260FEF7CAFB05462046FFF7C2FC26
:104620002A4603463F212046BDE8F041FEF7BAB8CE
:1046300053786C2B7FF4BFAD0232C260FEF7F0FC02
:10464000E36805469CE500BF010204002DE9F04146
:10465000C2680E46117882B00023B142044601932D
:1046600024D001AD012709E0FEF79CF8286000F195
:10467000100588B1E3681A78B24211D0D4F83080BE
:1046800027632046FFF75EFD024600232E212046C9
:10469000C4F83080002AE7D1002002B0BDE8F081E4
:1046A00001980133E36002B0BDE8F0810132C260DD
:1046B0002E211A4602B0BDE8F041FEF773B800BFE4
:1046C0002DE9F04F0F4683B0C168131E04460A78E7
:1046D000019315BF4FF01E0A4FF01B0A4FF01D0843
:1046E0004FF01A0814BF1C2619263D464FF0010B47
:1046F0001BE0562A32D04B2A36D04B784BB38B1C5A
:10470000E3604B78782B35D06F2B51D1E36A0933B6
:10471000E3625021002300222046FEF743F8286080
:10472000B8B1E1680A7800F10C050846FEF7FAF91D
:1047300030B34B1C722AE360DBD1E36A0933E362D6
:104740003146002300222046FEF72CF8286000287E
:10475000E7D10025284603B0BDE8F08FE36A0933AE
:10476000E36241460023D6E7E36A0633E36251463B
:104770000023D0E7E36A1133E3624E210023CAE746
:10478000019B002BE6D1462AE4D1BD42E2D01D2098
:104790001E211C2204E0192B38D00C37BD42D9D081
:1047A0003F683B781A2B2FD01B2BF4D13970F4E7DC
:1047B0004F2B16D1E36AD4F83090C4F830B00933E7
:1047C000E3622046FFF7BEFCC4F8309003460028A1
:1047D000BFD0E26811784529BBD10132E260502197
:1047E00099E7772BB5D1E36A0633E3622046FFF7FA
:1047F00049F803460028ACD0E26811784529A8D1D1
:104800000132E260512186E73870C6E73A70C4E7AA
:104810002DE9F041C16AC36801F11402C2621A783D
:10482000542A044676D0472A28D15A1CC2605A78A6
:1048300022B39A1CC2605A78562A22D8402A1DD91F
:10484000413A152A1AD8DFE812F02401190019009C
:104850001900190019001900190019001900190090
:104860001900190019001900190019000301190095
:10487000E9001900DF00E3680233E3600020BDE8CF
:10488000F081722AFAD1FEF705F80128F6DDE36817
:104890001A78002AF2D05E1CE6601A785F2AEDD101
:1048A0005B78451E002BE9D00020242B40F0E681E8
:1048B0007378532B00F016825F2B00F01182242BAB
:1048C000DCD1D4E905129142D5DA266901EB810CDD
:1048D000024606EB8C0001314FF0000EC0F804E0F8
:1048E000C0F808E06161422106F82C10E668C36058
:1048F000023D0236E66032B1034641212046FDF713
:1049000051FF0028BAD0002D40F30E823378002BDF
:10491000CBD1B3E75A1CC2605A78002AAED09A1C99
:10492000C2605B78413B352BA8D801A252F823F036
:10493000DF4A00007D480000F34A00007D48000087
:104940007D4800002F4B00007D480000AB4B00006D
:10495000554C0000414C00007D4800007D4800009F
:104960007D4800007D4800007D4800007D48000033
:104970007D4800007D480000694C0000BF4B0000EE
:104980007D480000D74B0000EF4B00007D48000041
:104990007D4800007D4800007D4800007D48000003
:1049A0007D4800007D4800007D4800007D480000F3
:1049B0007D4800007D480000034C00007D48000059
:1049C0007D4800007D4800007D480000434B00000A
:1049D0007D4800007D4800007D4800007D480000C3
:1049E0007D4800007D4800007D4800007D480000B3
:1049F0007D4800007D4800007D4800007D480000A3
:104A00007D480000774B000000F096F90023024635
:104A100013212046BDE8F041FDF7C4BE9A78002A74
:104A200000F06281DA1CC2609A78DB786E2A45D089
:104A3000472B02D0542B40F057812046FFF7E8FE69
:104A4000024620460023BDE8F0414A21FDF7AABEF8
:104A500000F072F9D4E905129142064680F24E81C7
:104A6000226901EB810002EB800500236B60AB60E3
:104A700001314323616102F820302046FDF70AFF2F
:104A8000E8602B46324620461621BDE8F041FDF78E
:104A900089BE9B78472B01D0542B0AD12046FFF7C3
:104AA000B7FE024620460023BDE8F0411721FDF77E
:104AB00079BE002100F0A4FA0246F3E7472B00F08C
:104AC0002981542B00F02681002100F099FA02463A
:104AD00020460023BDE8F0414B21FDF763BEFFF700
:104AE00035FA0023024630212046BDE8F041FDF7AB
:104AF00059BEFEF795FA05462046FDF7CBFE002885
:104B0000FFF6BCAEE3681A785F2A7FF4B7AE0133D4
:104B1000E3602046FEF784FAE16A0531E16202466D
:104B20002B4620460B21BDE8F041FDF73BBEFEF7CA
:104B300077FA002302460E212046BDE8F041FDF73A
:104B400031BE6821FDF7E0FE00283FF497AEE36830
:104B50001B78472B00F0D480542B00F0D18000212B
:104B6000204600F04DFA024620460023BDE8F04101
:104B70000F21FDF717BE7621FDF7C6FE00283FF492
:104B80007DAEE3681B78472B00F0BF80542B00F00C
:104B9000BC800021204600F033FA02462046002364
:104BA000BDE8F0411021FDF7FDBD00F0C5F8002380
:104BB000024614212046BDE8F041FDF7F3BD0A315D
:104BC000C162FEF72DFA002302460A212046BDE805
:104BD000F041FDF7E7BD0F31C162FEF721FA002376
:104BE000024609212046BDE8F041FDF7DBBD00F09B
:104BF000A3F80023024615212046BDE8F041FDF749
:104C0000D1BD0021FDF780FE00283FF437AE002122
:104C10002046FDF779FE00283FF430AEE3681B78AC
:104C2000472B7CD0542B7AD00021204600F0E8F9A5
:104C3000024620460023BDE8F0411121FDF7B2BD38
:104C4000FEF7EEF90023024612212046BDE8F041AE
:104C5000FDF7A8BDFEF7E4F9002302460C2120462B
:104C6000BDE8F041FDF79EBDFEF7DAF900230246EC
:104C70000D212046BDE8F041FDF794BD06F1FF3C53
:104C8000002104E0242B06D00131A94203D01CF8F6
:104C9000013F002BF6D1D4E9053293422ADA276985
:104CA00003EB830207EB820C01334FEA820E0022F2
:104CB000CCF80420CCF80820636100293FF4DEAD75
:104CC000CCF80420CCF8082007F80E20CCF80C60B3
:104CD000E668CCF8101002466D1A60460E4409E6EC
:104CE0002E23EEE52F23ECE50021204600F088F985
:104CF0000246A6E6E3680B44E360BFE50025C0E694
:104D00002046FFF785FD02462EE72046FFF780FD8F
:104D1000024643E72046FFF77BFD0246D8E62046E1
:104D2000FFF776FD024684E7024600232046402135
:104D3000BDE8F041FDF736BDF0B5C26813784E3BD3
:104D400085B004460C2B08D8DFE803F030070707CE
:104D500007160711070707075300FEF7BDFEE368B4
:104D60001A78492A05467DD0284605B0F0BD05B021
:104D7000BDE8F040FEF7B0BE5378742B00F083809E
:104D80000021FEF783F8E3681A78492A0546EBD13B
:104D90000133E3602046FFF705F903462A46042164
:104DA000204605B0BDE8F040FDF7FCBC0132C26012
:104DB00003A90122FFF784FC0546002800F09B8030
:104DC000E3681A78522A00F0F1804F2A00F09C80A4
:104DD00001212046FFF718F92860002800F08B8099
:104DE000E3681A78452A40F086800133039DE3602A
:104DF000BAE7531CC3605378472B01D0542B7ED1A4
:104E00002046FFF705FD0546002D74D0E3681A78AB
:104E1000452A70D15A1CE2605A78732A00F0CC807F
:104E2000642A00F08B802046FFF786FF03460028A7
:104E300000F0C0800278472A08D0492A06D00190A5
:104E40002046FDF785FD019B002854D02A78032ACF
:104E500005D12A691178292904BF0021D1602A4689
:104E600002219DE7002846D0D4E908218A4242DA8F
:104E7000E16941F82200013222621A78493A012A96
:104E800086D900238AE7D0E9053102328B42C2601D
:104E900080F2AE80026903EB8305A900013302EBC7
:104EA0008505436100236B60AB605354524A032372
:104EB000C5E903232046FEF70FFE2A4603460121DB
:104EC0002046FDF76FFCE26AE3680332E2621A787B
:104ED000492A05467FF448AF68B1D4E908218A42DF
:104EE00009DAE16941F82200013222621A78493A6E
:104EF000012AC6D84CE70025284605B0F0BD0021A0
:104F000000F07EF805467FE7E06A202103305A1C56
:104F10000023E062E26020461A46FDF743FC0121CF
:104F200006462046FFF770F828600028E3D0002EE0
:104F30003FF456AF039BF360039651E79A1CE2607F
:104F40009B785F2B56D06E2BD5D02046FDF7A2FC68
:104F5000461CD0D4E26813785F2BCCD10132E260DA
:104F60002046FFF7E9FE074648B10378472B06D0F5
:104F7000492B04D02046FDF7EBFC0028BBD0D4E938
:104F800005239A4216DA216902EB820001EB8003C5
:104F900001324FF0000CC3F804C0C3F808C06261CE
:104FA000482201F82020C3E903764FE7E06A1F2179
:104FB0000230ACE7002349E70233E3602046FDF707
:104FC000C7FC002897D0D4E905239A42F2DA216978
:104FD00002EB82039800013201EB8303626100223D
:104FE0005A609A600A5405490E22C3E903122DE75C
:104FF00000255FE70026B1E7784201006842010022
:1050000070B505460E46FFF797FE00B304460EB393
:10501000AB68DB071ED423784E2BA3F11C01A3F150
:1050200050023AD037D8042937D9022B10D123693E
:105030006BB11A784E2AA2F11C00A2F1500102D0E5
:105040003DD8042804D8DB682361002BF1D100246B
:10505000204670BDEB681B78002BF9D0452BF7D0AC
:1050600021460B78042B2DD01ED8022B1AD10969AA
:105070000029F6D12846FEF745FC03460028E6D075
:1050800016B92278022A31D0224628460321BDE8EB
:105090007040FDF787BB012ADAD8E468BBE71C3B08
:1050A000042B08D90021E5E74E2BA3F1500202D0D2
:1050B000F5D9012AF6D8C9680029D2D1DAE7012941
:1050C000C6D8C0E7CB685BB11978082901F1FF3277
:1050D00008D80629E6D8012A02D81B69002BF3D18B
:1050E0000121C7E7353918BF0121C3E70278292A12
:1050F00008BFC660C8E700BF2DE9F04F044695B071
:10510000002A72D0D0F81861002E71D11778154698
:10511000512F6AD8DFE817F01F09450145014D03FB
:10512000C1060002F50110016A08D308790854018C
:105130002B02F908AD080005DA04B4048E04560405
:1051400030040A04E403CF01A4016F006F006F0074
:105150008C008C008C008C008C008C008C00BF00BC
:10516000BF008C008C004A09840044081D07A90078
:10517000FB06A90012011201BE0350061406EE053B
:105180006900C805C005AB054C056900C807690082
:105190006900E000E000A5077F0779079F08040881
:1051A000980326059B067506690027030103DB02A9
:1051B0007B0251028C007A018C008C001146FDF7B5
:1051C000EDFC024688B103782F2B41F04183D4F8DF
:1051D0002431002BC1F23C83002B01F0358312698E
:1051E000013B12B111782F29F6D00123C4F81831F0
:1051F00015B0BDE8F08FD0F814118E46002901F0EB
:105200000B870B4601E01B68A3B19A68002AFAD10C
:105210005A681278A2F1190002280BD89742F2D1ED
:10522000EA681121204615B0BDE8F04F01F0A2BF99
:10523000D0F81411D4F810310026CDE90415CDE9C9
:10524000066304AAC4F81421EA681121204601F07B
:1052500091FF069B002B01F0A382049BC4F814313C
:10526000002EC5D0C4F81081C2E7D0E9443104AAA9
:10527000C0F814210022CDE90415069211212A69F3
:10528000079301F077FF069B002B01F02484049B19
:10529000C4F81431ACE7D268D0F820611378002E3E
:1052A00041F06083052B01F064851046232B01F04B
:1052B000AB829F4201F0A882242B01F0F080D4F849
:1052C00014E1D4F81031079304ABC4F8143100236F
:1052D000CDE904E50693B8E7D2681378272B41F0AF
:1052E0004583D3681E7C062E01F29482002E41F085
:1052F0001B85D4F80011FF2901F0A0844B1CC4F8D1
:105300000031282363542046112184F8043101F030
:1053100031FFD4F80011FF2901F080844B1CC4F840
:1053200000312923635484F804312B783E2B01F09B
:105330006F84082E01F060842A6972E7D26812B186
:10534000112101F017FF2B69002B3FF451AFD4F866
:105350000061FD2E01F2F183C44F4FF0000907F107
:10536000020A314609E00B460131BA45C4F8001182
:10537000E65484F8046101F01A82FF2917F8016BE2
:10538000F1D1D4F80831D4F80C2184F8FF902046EC
:105390009847D4F828310133C4F82831012100237B
:1053A000E3E7D268112101F0E5FEB1492046FDF79F
:1053B00059FC2F693B78482B01F024803A4630E7AE
:1053C000AC4ED0F8001106F118094FF0000809E0C2
:1053D0000B4601314E45C4F80011E75484F80471BE
:1053E00001F09481FF2916F8017FF1D1D4F808313A
:1053F000D4F80C2184F8FF8020469847D4F828314F
:105400000133C4F8283101210023E3E79A4ED26822
:10541000112101F0AFFE06F10809D4F800114FF098
:10542000000809E00B460131B145C4F80011E7540A
:1054300084F8047101F02080FF2916F8017FF1D172
:10544000D4F80831D4F80C2184F8FF80204698471E
:10545000D4F828310133C4F8283101210023E3E7CF
:10546000D2E90353002B3FF4C3AE2B44D0F8001114
:10547000013D5F1E4FF0000809E00B460131AF42CD
:10548000C4F80011E65484F804613FF4B1AEFF297A
:1054900015F8016FF1D1D4F80831D4F80C2184F853
:1054A000FF8020469847D4F828310133C4F82831CA
:1054B00001210023E3E7714ED0F8001106F1110934
:1054C0004FF0000809E00B460131B145C4F8001166
:1054D000E75484F804713FF4A3AEFF2916F8017F66
:1054E000F1D1D4F80831D4F80C2184F8FF8020469B
:1054F0009847D4F828310133C4F82831012100231A
:10550000E3E7D568002D41F0E1815D49204615B003
:10551000BDE8F04FFDF7A6BBD0F82031002B3FF4DB
:105520004DAE584ED0F8001106F105094FF00008B5
:1055300009E00B460131B145C4F80011E75484F885
:10554000047101F09281FF2916F8017BF1D1D4F8A2
:105550000831D4F80C2184F8FF8020469847D4F80D
:1055600028310133C4F8283101210023E3E7464EF6
:10557000D0F8001106F10D094FF0000809E00B46C4
:1055800001314E45C4F80011E75484F804713FF42A
:1055900047AEFF2916F8017BF1D1D4F80831D4F8D1
:1055A0000C2184F8FF8020469847D4F82831013335
:1055B000C4F8283101210023E3E7344ED2681121D9
:1055C00001F0D8FD06F10509D4F800114FF00008EC
:1055D00009E00B4601314E45C4F80011E75484F848
:1055E000047100F04987FF2916F8017BF1D1D4F846
:1055F0000831D4F80C2184F8FF8020469847D4F86D
:1056000028310133C4F8283101210023E3E7D2F81F
:105610000C804146FDF7DCFA002730B901F033BCBD
:10562000C3682BB10069013728B103782F2BF7D05D
:10563000002F3FF4DDADC34607F1FF394FF0000AFC
:10564000A04603E00136B7423FF4D2ADC8F824616A
:105650005A461121404601F08DFD4E45F2DA034DC8
:105660000196D8F80011AC1C46461CE02444010009
:1056700084420100DB42010007450100DB430100D9
:10568000984401009C420100004301007C4201005B
:105690000B460131AC42C6F8001106F8038086F8CB
:1056A000048100F0E586FF2915F8018BF0D1D6F8CA
:1056B0000831D6F80C2186F8FFA030469847D6F876
:1056C00028310133C6F8283101210023E2E7D04E0A
:1056D000D0F8001106F11A094FF0000809E00B4656
:1056E0000131B145C4F80011E75484F804713FF466
:1056F00097ADFF2916F8017FF1D1D4F80831D4F81D
:105700000C2184F8FF8020469847D4F828310133D3
:10571000C4F8283101210023E3E7BE4ED0F8001180
:1057200006F116094FF0000809E00B460131B145BA
:10573000C4F80011E75484F804713FF471ADFF29F7
:1057400016F8017FF1D1D4F80831D4F80C2184F88F
:10575000FF8020469847D4F828310133C4F8283117
:1057600001210023E3E7AC4ED0F8001106F10E0949
:105770004FF0000809E00B460131B145C4F80011B3
:10578000E75484F8047100F09287FF2916F8017F2E
:10579000F1D1D4F80831D4F80C2184F8FF802046E8
:1057A0009847D4F828310133C4F828310121002367
:1057B000E3E7D768D0F814910022C0F81421002F35
:1057C0003FF413AD0DF11008D0F810114346944684
:1057D0009646C3E90027C3E902E13A784E2A9A4681
:1057E000A2F11C0BA2F150000CF1010600F06C8636
:1057F00000F26786BBF1040F40F26686C4F81431EC
:105800003B78022B01F02B82042B04D1CDE9021747
:1058100002ABC4F810312A691121204601F0AAFC1C
:105820003B78042B02D1029BC4F8103108EB06151B
:10583000202755F8086C002E00F0D087103DA845B1
:10584000F7D1C4F81491D3E4744ED0F8001106F1E6
:105850000A094FF0000809E00B460131B145C4F8D0
:105860000011E75484F8047100F07B87FF2916F8D3
:10587000017BF1D1D4F80831D4F80C2184F8FF80F1
:1058800020469847D4F828310133C4F82831012143
:105890000023E3E7624ED0F8001106F11E094FF035
:1058A000000809E00B460131B145C4F80011E75486
:1058B00084F804713FF4B4ACFF2916F8017FF1D1EC
:1058C000D4F80831D4F80C2184F8FF80204698479A
:1058D000D4F828310133C4F8283101210023E3E74B
:1058E000504ED0F8001106F115094FF0000809E0FC
:1058F0000B460131B145C4F80011E75484F8047136
:1059000000F0AA86FF2916F8017FF1D1D4F80831FA
:10591000D4F80C2184F8FF8020469847D4F8283129
:105920000133C4F8283101210023E3E73E4ED0F8CB
:10593000001106F119094FF0000809E00B4601318A
:105940004E45C4F80011E75484F804713FF468AC84
:10595000FF2916F8017FF1D1D4F80831D4F80C21D1
:1059600084F8FF8020469847D4F828310133C4F8E2
:10597000283101210023E3E72C4ED0F8001106F175
:1059800016094FF0000809E00B460131B145C4F893
:105990000011E75484F804713FF442ACFF2916F873
:1059A000017FF1D1D4F80831D4F80C2184F8FF80BC
:1059B00020469847D4F828310133C4F82831012112
:1059C0000023E3E71A4ED0F8001106F113094FF057
:1059D000000809E00B460131B145C4F80011E75455
:1059E00084F804713FF41CACFF2916F8017FF1D153
:1059F000D4F80831D4F80C2184F8FF802046984769
:105A0000D4F828310133C4F8283101210023E3E719
:105A1000EF430100F3430100F74401008844010013
:105A2000A3420100C3430100A74301008F430100CB
:105A30007B430100C84ED0F8001106F10F094FF06A
:105A4000000809E00B460131B145C4F80011E754E4
:105A500084F804713FF4E4ABFF2916F8017FF1D11B
:105A6000D4F80831D4F80C2184F8FF8020469847F8
:105A7000D4F828310133C4F8283101210023E3E7A9
:105A8000B64ED0F8001106F11A094FF0000809E0EF
:105A90000B460131B145C4F80011E75484F8047194
:105AA0003FF4BEABFF2916F8017FF1D1D4F80831DD
:105AB000D4F80C2184F8FF8020469847D4F8283188
:105AC0000133C4F8283101210023E3E7A44ED0F8C4
:105AD000001106F111094FF0000809E00B460131F1
